:1000000008690120DD0D010059360020633600200B
:1000100000000000000000000000000000000000E0
:100020000000000000000000000000007B360020FF
:1000300000000000000000008F36002099360020EC
:10004000A5700020BB700020D1700020E770002058
:10005000FD70002013710020297100203F710020E5
:10006000557100206B710020817100209771002074
:10007000AD710020C3710020D9710020EF71002004
:10008000057200201B720020317200204772002090
:100090005D72002073720020897200209F72002020
:1000A000B5720020CB720020E1720020F7720020B0
:1000B0000D73002023730020397300204F7300203C
:1000C000FFFFFFFFFFFFFFFFFFFFFFFFFFFFFFFF40
:1000D000FFFFFFFFFFFFFFFFFFFFFFFFFFFFFFFF30
:1000E000FFFFFFFFFFFFFFFFFFFFFFFFFFFFFFFF20
:1000F000FFFFFFFFFFFFFFFFFFFFFFFFFFFFFFFF10
:10040000FFFFFFFFFFBFFFFFFFFFFFFFFFFFFFFF3C
:10041000FFFFFFFFFFFFFFFFFFFFFFFFFFFFFFFFEC
:10042000FFFFFFFFFFFFFFFFFFFFFFFFFFFFFFFFDC
:10043000FFFFFFFFFFFFFFFFFFFFFFFFFFFFFFFFCC
:10044000FFFFFFFFFFFFFFFFFFFFFFFFFFFFFFFFBC
:1030000080B500AFC046BD4680BDFFFFB0B588B0FB
:1030100000AF05000C0010001900BB1D2A1C1A800F
:103020003B1D221C1A80BB1C021C1A807B1C0A1C24
:103030001A70BB1D1B88012B00D0B1E03B1D1B8803
:103040000D2B00D0ACE0B54AD37803218B43D3706D
:103050001723FB1807221A701723FB181B787F2BE6
:103060000FD8AF491723FB181B781A001F231340F2
:1030700001229A40130080228B50BFF34F8FBFF381
:103080006F8F14F0B1FCA74B1A000121072014F038
:10309000F3FC072014F0D0FB1E23FB1807221A7044
:1030A0000123BB611E23FB181B787F2B2CD89C4C63
:1030B0001E23FB181B785BB29B0899491E22BA1885
:1030C000127852B29208C032920052581E217918DA
:1030D0000978080003210140C900FF208840010051
:1030E000C9431140BA699201FF2010401E22BA184C
:1030F0001278150003222A40D200904002000A43B1
:10310000C0339B001A5135E0874C1E23FB181B78F7
:103110001A000F231340083B9908834A1E23FB180B
:103120001B7818000F230340083B9B0806339B00C5
:10313000D31804331B681E22BA1812781000032219
:103140000240D200FF2090400200D2431A40BB69E7
:103150009B01FF2018401E23FB181B781D00032332
:103160002B40DB00984003001A438B1D9B00E318A3
:1031700004331A601F23FB1807221A701F23FB1841
:103180001B787F2B00D9C4E0654B1F22BA18127838
:1031900011001F220A40012191400A001A60B8E084
:1031A000BB1D1B88022B00D0B4E03B1D1B88042BE9
:1031B00000D0AFE0594AD37903218B43191C012376
:1031C0000B43D3710F23FB1817221A700F23FB1820
:1031D0001B787F2B0FD852490F23FB181B781A003E
:1031E0001F23134001229A40130080228B50BFF30B
:1031F0004F8FBFF36F8F14F09FFA4C4B1A001321BF
:10320000172014F039FC172014F016FB1523FB18B7
:1032100017221A7001233B611523FB181B787F2BA3
:103220002CD83F4C1523FB181B785BB29B083C49FC
:103230001522BA18127852B29208C032920052582F
:10324000152179180978080003210140C900FF20E1
:1032500088400100C94311403A699201FF201040A3
:103260001522BA181278150003222A40D200904085
:1032700002000A43C0339B001A5135E02A4C152343
:10328000FB181B781A000F231340083B9908264AA5
:103290001523FB181B7818000F230340083B9B08DD
:1032A00006339B00D31804331B681522BA18127812
:1032B000100003220240D200FF2090400200D243BF
:1032C0001A403B699B01FF2018401523FB181B780F
:1032D0001D0003232B40DB00984003001A438B1D85
:1032E0009B00E31804331A601623FB1817221A7088
:1032F0001623FB181B787F2B0CD8094B1622BA1803
:10330000127811001F220A40012191400A001A6020
:1033100000E0C046C046BD4608B0B0BD00600040F9
:1033200000E100E0D936002000ED00E00137002088
:1033300090B585B000AF040008001100BB1D221C31
:103340001A803B1D021C1A80FB1C0A1C1A70BB1D34
:103350001B889B0119003B1D1B880F2213409B00FB
:10336000CB18294A94466344BB600023FB600320CA
:1033700014F0AAFABB68FA681A60032014F08CFAF9
:10338000FB1C1B78012B07D0FB1C1B78022B03D0E6
:10339000FB1C1B78032B09D1FB1C1B781AB23B1DAD
:1033A0001988BB1D18880123FFF730FE032014F095
:1033B0008BFABB681B68FB60FB1C1B78012B05D1DB
:1033C000FB68A022D2011343FB6012E0FB1C1B78B8
:1033D000022B05D1FB68C022D2011343FB6008E039
:1033E000FB1C1B78032B04D1FB68E022D2011343A2
:1033F000FB60BB68FA681A60032014F04DFAC046FF
:10340000BD4605B090BDC0460008044090B585B0EB
:1034100000AF040008001100BB1D221C1A803B1DD8
:10342000021C1A80FB1C0A1C1A70BB1D1B889B0106
:1034300019003B1D1B880F2213409B00CB180B4A21
:1034400094466344FB60032014F03EFAFB1C1B7897
:1034500001221340042213431A00FB681A60032060
:1034600014F01AFAC046BD4605B090BD00080440ED
:1034700080B500AF002202210620FFF7C7FF00221F
:1034800004210020FFF7C2FF002205210020FFF7E2
:10349000BDFF01220B210120FFF7B8FF01220C2103
:1034A0000120FFF7B3FF012204210220FFF740FFB4
:1034B00002220D210120FFF73BFF002208210120FD
:1034C000FFF736FF01220F210020FFF79FFF0022A8
:1034D00002210320FFF79AFF002209210120FFF7B4
:1034E00095FF012209210220FFF790FFC046BD464B
:1034F00080BDFFFF80B500AF032014F0E5F9304B2D
:103500009A69304B1A602E4B1A6D2F4B1A602C4B58
:103510005A6D2E4B1A602A4B9A6D2D4B1A60284B10
:10352000DA6D2C4B1A60264B1A6E2B4B1A60244B0B
:103530005A6E2A4B1A60224BDA6E294B1A60204BC6
:103540001A6F284B1A601E4A8823D258264B1A60DD
:103550001B4A8C23D258254B1A60194A9023D25803
:10356000234B1A60164B00229A61154B00221A65F4
:10357000134B00225A65124B00229A65104B002211
:10358000DA650F4B00221A660D4B00225A660C4B6F
:103590000022DA660A4B00221A67094A88230021B2
:1035A000D150074A8C230021D150054A9023002195
:1035B000D150032014F070F9C046BD4680BDC0460E
:1035C00000080440081F01200C1F0120101F0120CB
:1035D000141F0120181F01201C1F0120201F012083
:1035E000241F0120281F01202C1F0120301F012033
:1035F000341F012080B500AF032014F065F91C4A88
:103600001C4B1B6893611A4A1B4B1B681365184AB5
:103610001A4B1B685365164A194B1B689365144A6D
:10362000184B1B68D365124A174B1B681366104A68
:10363000164B1B6853660E4A154B1B68D3660C4A23
:10364000144B1B6813670A49134B1B6888228B5065
:103650000749124B1B688C228B500549104B1B6885
:1036600090228B50032014F017F9C046BD4680BD50
:1036700000080440081F01200C1F0120101F01201A
:10368000141F0120181F01201C1F0120201F0120D2
:10369000241F0120281F01202C1F0120301F012082
:1036A000341F012080B582B000AF274B00221A6082
:1036B000192014F051F9254A137A04210B4313728F
:1036C000C046224B1B7A9B07DB0FDBB2012BF8D0E5
:1036D0001E4A537A07218B4353721C4A537A08219E
:1036E0008B435372194A537A70218B43191C602300
:1036F0000B435372154A937A07218B43191C0523F8
:103700000B439372114B20221A80114B1A00062191
:10371000042014F0B1F9042014F08EF8FB1D0422EB
:103720001A70FB1D1B787F2B0AD80A4BFA1D1278E2
:1037300011001F220A40012191400A001A60C04670
:10374000C046BD4602B080BDA4250120004108400E
:103750007139002000E100E080B500AF204B00226D
:103760001A60212014F0F8F81E4A137B04210B4341
:103770001373C0461B4B1B7B9B07DB0FDBB2012B7C
:10378000F8D0184A537B07218B435373154A537B58
:1037900008218B435373134A537B70218B43191CAD
:1037A00060230B4353730F4A937B07218B43191CF0
:1037B00005230B4393730B4B012252421A60094BB2
:1037C000012252421A60084B1A001521182014F0E9
:1037D00053F9182014F030F8C046BD4680BDC046ED
:1037E000A425012000420840593A002080B582B04B
:1037F00000AF1E2014F0B0F8334928228B5C022061
:1038000003438B54304928228B5C7F2003408B5428
:1038100000237B6003E0C0467B6801337B607B68EC
:10382000052BF8DD284A2423D35CDB07DB0F264970
:1038300024228B5C012083438B5400E0C046224A43
:103840002423D35CDB07DB0FDBB2002BF6D11E4A4F
:103850002423D35C9B07DB0F1B4924228B5C0220B3
:1038600003438B5400E0C046174A2423D35C9B07D4
:10387000DB0FDBB2002BF6D103E0134A2223002139
:10388000D154114A2223D35CDBB2002BF5D10020A6
:1038900013F08AFF06E00C4924228B5C8020404212
:1038A00003438B54084A2423D35C1B06DB0FDBB293
:1038B000012BF0D113F048FF044B01221A70C046CF
:1038C000BD4602B080BDC04600400440841F0120B8
:1038D00080B582B000AF0200FB1D1A70FB1D1B7883
:1038E0001B09DBB21A0013009B009B185B00190038
:1038F000FB1D1B780F221340CB181800BD4602B0E9
:1039000080BD90B583B000AF0200FB1D1A70FB1D97
:103910001B780A21180013F0EFFF0300DBB21B0134
:103920005BB20F2293435CB2FB1D1B780A21180087
:1039300013F032FF0B00DBB25BB223435BB2DBB2AE
:103940001800BD4603B090BD80B500AFC046BD466F
:1039500080BDFFFF80B500AF034B1B685A1C024BB4
:103960001A60C046BD4680BD8C1F012080B588B05E
:1039700000AF78600A00FB1C1A70EFF310837B61C4
:103980007B69FB610123BB61BB6983F310887B68A2
:103990005B881AB20E23FB181A807B685B680E22C4
:1039A000BA18128812B29B18FA1C12781A700E23D9
:1039B000FB181B881BB29BB201339BB21AB20E23B9
:1039C000FB181A800E23FB181B881BB21A007B6899
:1039D0001B899A4203DB0E23FB1800221A807B68A6
:1039E0005B680E22BA18128812B29B1800221A7055
:1039F0000E23FB181B881BB29AB27B685A80FB69A6
:103A00003B613B6983F31088C046BD4608B080BD6A
:103A100080B588B000AF7860EFF310837B617B697D
:103A2000FB610123BB61BB6983F310887B681B8842
:103A30001AB20C23FB181A807B685B680C22BA1838
:103A4000128812B29B1800229A560F23FB181A7084
:103A50000C23FB181B881BB29BB201339BB21AB21A
:103A60000C23FB181A800C23FB181B881BB21A00AE
:103A70007B681B899A4203DB0C23FB1800221A8007
:103A80000C23FB181B881BB29AB27B681A80FB6957
:103A90003B613B6983F310880F23FB181B785BB2F3
:103AA0001800BD4608B080BD80B588B000AF786012
:103AB000EFF310833B613B69BB6101237B617B6951
:103AC00083F310887B685A887B681B889A4204D1EC
:103AD0001F23FB1801221A7003E01F23FB1800228A
:103AE0001A70BB69FB60FB6883F310881F23FB1807
:103AF0001B785BB21800BD4608B080BD80B588B0A9
:103B000000AF7860EFF310833B613B69BB61012339
:103B10007B617B6983F310887B685B881AB20A2318
:103B2000FB181A800A23FB181B881BB29BB20133B7
:103B30009BB21AB20A23FB181A800A23FB181B88AF
:103B40001BB21A007B681B899A4203DB0A23FB180D
:103B500000221A800A23FB181B881BB21A007B68FC
:103B60001B889A4204D11F23FB1801221A7003E01C
:103B70001F23FB1800221A70BB69FB60FB6883F3EC
:103B800010881F23FB181B785BB21800BD4608B0D5
:103B900080BDFFFF90B587B002AF786039600C231D
:103BA000FB18184A12881A800823FB1800221A8072
:103BB0000F23FC180823FA180C23F918786802233D
:103BC00000931300022202F05FF8030023700F231A
:103BD000FB181B78002B0DD10823FB181B789BB218
:103BE0001B029AB20823FB185B789BB2D3189AB2D7
:103BF0003B681A800F23FB181B781800BD4605B0E0
:103C000090BDC046487B010080B588B002AFF86027
:103C1000B960BB1D1A801423FB18094A12881A8048
:103C2000BA681423F918F868BB1D1B8800931300A9
:103C3000022202F029F803001800BD4606B080BD3C
:103C40004C7B010090B589B002AF786039601423D5
:103C5000FB18204A12881A800C23FB18180008232E
:103C60001A0000210FF034FB1723FC180C23FA185C
:103C70001423F9187868082300931300022202F035
:103C800003F8030023700C23FB18180000F044FA1B
:103C90000200FA239900100013F02EFE03001A0010
:103CA0003B685A600C23FB180433180000F034FA08
:103CB0000200FA239900100013F01EFE03001A0000
:103CC0003B681A601723FB181B781800BD4607B025
:103CD00090BDC046507B010080B586B002AF7860D1
:103CE00039600C23FB18094A12881A803A680C23A1
:103CF000F9187868142300931300022202F00EF8DA
:103D000003001800BD4604B080BDC046547B0100CE
:103D100090B589B000AFF8607A600B23FB180A1CDD
:103D20001A7000237B611223FB1800221A801F23C4
:103D3000FC181223FA181423F918FB68180000F075
:103D400043F8030023701F23FB181B78002B03D0BC
:103D50001F23FB181B7833E00B23FB181B789BB247
:103D6000162253439AB21C23FB1801321A801023E7
:103D7000FB1800221A801C23FB181A887B69D118B3
:103D80001B23FC181023FA18F868022300F0DDFB4F
:103D9000030023701B23FB181B78002B0DD110236D
:103DA000FB185B789BB21B029AB21023FB181B789E
:103DB0009BB2D3189AB27B681A801B23FB181B781E
:103DC0001800BD4609B090BD90B58BB002AFF86049
:103DD000B9607A601C23FB181D4A12881A801423CC
:103DE000FB18180006231A0000210FF071FA1F2398
:103DF000FC181423FA181C23F918F86806230093FA
:103E00001300022201F040FF030023701F23FB1860
:103E10001B78002B15D11423FB18180000F07CF937
:103E20000200BB681A601423FB181B791B021AB22C
:103E30001423FB185B791BB213431BB29AB27B6845
:103E40001A801F23FB181B781800BD4609B090BDCF
:103E5000587B010080B586B002AF78600A00FB1C79
:103E60001A700C23FB1804221A700C23FB18002272
:103E70005A700C23FB18FA1C12789A700C23F9184C
:103E80007868002300930023032201F047FF03001A
:103E90001800BD4604B080BD80B588B002AFF860A0
:103EA0007A600B23FB180A1C1A701423FB180422D7
:103EB0001A701423FB1808225A701423FB180B22C3
:103EC000BA1812789A707A681423F918F8680123DE
:103ED00000931300032201F0D7FE03001800BD4633
:103EE00006B080BD80B58AB002AFF860B960190035
:103EF000FB1D1A70BB1D0A1C1A701423FB18042228
:103F00001A701423FB1809225A70BB681B0EDAB210
:103F10001423FB189A70BB681B0CDAB21423FB182D
:103F2000DA70BB681B0ADAB21423FB181A71BB687B
:103F3000DAB21423FB185A711423FB18FA1D1278F5
:103F40009A711423FB18BA1D1278DA711423FB1826
:103F50002822BA1812781A721423F918F868002364
:103F600000930023092201F0D9FE03001800BD468A
:103F700008B080BD80B58AB002AFF860B9601900A2
:103F8000FB1D1A70BB1D0A1C1A701423FB18042297
:103F90001A701423FB180A225A70BB681B0EDAB27F
:103FA0001423FB189A70BB681B0CDAB21423FB189D
:103FB000DA70BB681B0ADAB21423FB181A71BB68EB
:103FC000DAB21423FB185A711423FB18FA1D127865
:103FD0009A711423FB18BA1D1278DA711423FB1896
:103FE0002822BA1812781A721423F918F8680023D4
:103FF00000930023092201F091FE03001800BD4642
:1040000008B080BD90B589B002AF786039600C23EC
:10401000FB1804221A700C23FB1810225A703B68FC
:104020001B688A21C905181C13F0DEFB031C2849F4
:10403000181C13F009FC031C1622BC18181C13F0E2
:10404000C3FC030023801623FB1800229B5E1B1277
:104050001BB2DAB20C23FB189A701623FB181B88CC
:10406000DAB20C23FB18DA703B685B688A21C90559
:10407000181C13F0B9FB031C1649181C13F0E4FBC1
:10408000031C1422BC18181C13F09EFC0300238090
:104090001423FB1800229B5E1B121BB2DAB20C2306
:1040A000FB181A711423FB181B88DAB20C23FB18B7
:1040B0005A710C23F9187868002300930023062214
:1040C00001F02CFE03001800BD4607B090BDC046AD
:1040D0000000B4420000344380B586B002AF78607F
:1040E00039600C23FB1800221A800C23FB180422D1
:1040F0001A700C23FB1817225A703A680C23F9180F
:104100007868012300931300022201F0BDFD030033
:104110001800BD4604B080BD80B582B000AF7860A5
:104120007B681B781A067B6801331B781B04D21846
:104130007B6802331B781B02D3187A68033212782B
:104140009B181800BD4602B080BD90B587B002AF85
:10415000786039600823FB18180003231A00002137
:104160000FF0B6F80F23FB1803221A700C23FB186C
:1041700002221A700C23FB1804225A700F23FC1819
:104180000823FA180C23F918786803230093130006
:10419000022201F079FD030023700F23FB181B7826
:1041A000002B1CD10823FB181B785B08DBB25B4299
:1041B000DBB25AB23B681A700823FB185B785BB21B
:1041C00002339B105AB23B685A700823FB189B7845
:1041D0005B08DBB25B42DBB25AB23B689A700F23DA
:1041E000FB181B781800BD4605B090BD80B584B0A3
:1041F00000AF786039603B68180000F096F9030062
:10420000FB60FA687B681100180000F005F80300F5
:104210001800BD4604B080BD80B586B002AF78609E
:1042200039600823FB1802221A700823FB180922A0
:104230005A703B681B0CDAB20823FB189A703B6873
:104240001B0ADAB20823FB18DA703B68DAB20823DB
:10425000FB181A710823F9187868002300930023CB
:10426000052201F05BFD03001800BD4604B080BDCF
:1042700080B584B000AF786039603B68180000F00A
:1042800054F90300FB60FA687B681100180000F025
:1042900005F803001800BD4604B080BD80B586B0A7
:1042A00002AF786039600823FB1802221A700823D5
:1042B000FB180A225A703B681B0CDAB20823FB1861
:1042C0009A703B681B0ADAB20823FB18DA703B6865
:1042D000DAB20823FB181A710823F918786800234A
:1042E00000930023052201F019FD03001800BD46CC
:1042F00004B080BD80B586B002AF78603960082315
:10430000FB1802221A700823FB180B225A703B6814
:104310001B0EDAB20823FB189A703B681B0CDAB24A
:104320000823FB18DA703B681B0ADAB20823FB1873
:104330001A713B68DAB20823FB185A710823F9187E
:104340007868002300930023062201F0E7FC0300B5
:104350001800BD4604B080BD80B586B002AF78605D
:104360000A00FB1C1A700C23FB1802221A700C2383
:10437000FB180E225A700C23FB18FA1C12789A7044
:104380000C23F9187868002300930023032201F01E
:10439000C5FC03001800BD4604B080BD80B586B0E2
:1043A00002AF786039600823FB1802221A700823D4
:1043B000FB180F225A703B681A780823FB189A7072
:1043C0003B685A780823FB18DA703B689A78082310
:1043D000FB181A713B68DA780823FB185A71082316
:1043E000F9187868002300930023062201F096FC58
:1043F00003001800BD4604B080BD80B586B002AF92
:10440000786039600823FB1802221A700823FB1811
:1044100010225A703B681B881B0A9BB2DAB2082331
:10442000FB189A703B681B88DAB20823FB18DA7015
:104430003B689A780823FB181A713B68DA780823DE
:10444000FB185A713B681A790823FB189A713B686C
:104450005A790823FB18DA710823F91878680023C1
:1044600000930023082201F059FC03001800BD4608
:1044700004B080BD80B586B002AF7860080011003E
:10448000FB1C021C1A70BB1C0A1C1A700C23FB18A4
:1044900002221A700C23FB1811225A70FB1C1A7886
:1044A0000C23FB189A700C23FB18BA1C1278DA70D4
:1044B0000C23F9187868002300930023042201F0EC
:1044C0002DFC03001800BD4604B080BD80B586B049
:1044D00002AF786039600823FB1802221A700823A3
:1044E000FB1815225A703B681A780823FB189A703B
:1044F0003B685A780823FB18DA703B689A780823DF
:10450000FB181A713B68DA780823FB185A710823E4
:10451000F9187868002300930023062201F0FEFBBF
:1045200003001800BD4604B080BD80B582B000AF66
:1045300078607B68DA03FA239900100013F0DCF945
:1045400003001800BD4602B080BD90B589B002AF2F
:10455000F860B9607A601A00FB1C1A70FB1C1C78AA
:10456000BA68842359001023F818230000F092F849
:10457000FB1C1B789BB27A6810217918F8680093AD
:104580001300072201F080FB03001800BD4607B0AE
:1045900090BD80B588B002AFF860B960FB1D1A709D
:1045A0001423FB1801221A701423FB1809225A70D5
:1045B000FB1D1B789BB2BA6814217918F868009328
:1045C0001300022201F0AAFB03001800BD4606B04A
:1045D00080BD80B588B002AFF860B9601900FB1DDE
:1045E0001A70BB1D0A1C1A701423FB1801221A70C2
:1045F0001423FB180A225A701423FB18FA1D127890
:104600009A701423FB18BA1D1278DA70BB1D1B7840
:104610009BB2BA6814217918F86800931300042239
:1046200001F032FB03001800BD4606B080BD80B526
:1046300084B000AFF8607A600A23FB180A1C1A8065
:104640000A23FB181B881B0A9BB2DAB2FB681A709C
:10465000FB6801330A22BA181288D2B21A70FB68BA
:1046600002337A68120ED2B21A70FB6803337A688A
:10467000120CD2B21A70FB6804337A68120AD2B2F2
:104680001A70FB6805337A68D2B21A70C046BD460C
:1046900004B080BD80B584B000AFF86008007A60D7
:1046A00019000A23FB18021C1A800923FB180A1C94
:1046B0001A707A680A23FB181988FB681800FFF73C
:1046C000B6FFFB6806330922BA1812781A70C04682
:1046D000BD4604B080BD90B587B000AFF860B9604A
:1046E0007A603B601023FB18180006231A00002193
:1046F0000EF0EEFD1723FB1803221A701023FB188F
:1047000001221A701023FB1800225A701723FC187C
:104710001023FA181023F918F868062301F02DFB6E
:10472000030023701723FB181B78002B40D11023A4
:10473000FB181B781A00012313405A1E9341DAB26A
:10474000BB685A701023FB181B785B08DAB2BB6891
:104750001A701023FB185B781A00012313405A1EAD
:104760009341DAB27B689A701023FB185B785B1078
:1047700007221340DAB27B685A701023FB185B786B
:104780001B09DAB27B681A701023FB189B781A0693
:104790001023FB18DB781B04D2181023FB181B799D
:1047A0001B02D3181022BA1852799A183B681A6063
:1047B0001723FB181B781800BD4607B090BDFFFFFC
:1047C00090B587B000AFF860B9607A603B6017239E
:1047D000FB1803221A702A4B01221A70284B002260
:1047E0005A701723FC18264A2549F868062301F059
:1047F000C4FA030023701723FB181B78002B37D152
:104800001F4B1B781A00012313405A1E9341DAB242
:10481000BB685A701A4B1B785B08DAB2BB681A7017
:10482000174B5B781A00012313405A1E9341DAB2EA
:104830007B689A70124B5B785B1007221340DAB2E8
:104840007B685A700E4B5B781B09DAB27B681A7072
:104850000B4B9B781A060A4BDB781B04D218084BCB
:104860001B791B02D318064A52799A183B681A60C2
:10487000C0461723FB181B781800BD4607B090BD33
:10488000981F012090B589B002AF7860396010237D
:10489000FB18180005231A0000210EF019FD0C2347
:1048A000FB1801221A700C23FB1800225A701723E0
:1048B000FC181023FA180C23F918786805230093C4
:1048C0001300022201F0E0F9030023701723FB1804
:1048D0001B78002B13D11023FB185B781A061023CA
:1048E000FB189B781B04D2181023FB18DB781B02E3
:1048F000D3181022BA1812799A183B681A60172335
:10490000FB181B781800BD4607B090BD90B587B066
:1049100002AF786039600823FB1800221A600F2369
:10492000FB1803221A700C23FB1801221A700C23A7
:10493000FB1801225A700F23FC180823FA180C23C5
:10494000F9187868042300931300022201F09CF9FF
:10495000030023700F23FB181B78002B17D10823AB
:10496000FB181A783B681A700823FB185A783B68C2
:104970005A700823FB189B789BB21B029AB208233B
:10498000FB18DB789BB2D3189AB23B685A800F238E
:10499000FB181B781800BD4605B090BD90B587B0D8
:1049A00002AF786039600823FB1800221A600F23D9
:1049B000FB1803221A700C23FB1801221A700C2317
:1049C000FB180D225A700F23FC180823FA180C2329
:1049D000F9187868022300931300022201F054F9B9
:1049E000030023700F23FB181B78002B0DD1082325
:1049F000FB181B789BB21B029AB20823FB185B784A
:104A00009BB2D3189AB23B681A800F23FB181B780D
:104A10001800BD4605B090BD80B586B002AF786085
:104A20000C23FB1801221A700C23FB180E225A705B
:104A30000C23F9187868002300930023022201F068
:104A40006DF903001800BD4604B080BD80B586B086
:104A500002AF78600A00FB1C1A700C23FB180122BD
:104A60001A700C23FB180F225A700C23FB18FA1C27
:104A700012789A700C23F9187868002300930023A9
:104A8000032201F04BF903001800BD4604B080BDBD
:104A900080B586B002AF78600A00FB1C1A700C2348
:104AA000FB1801221A700C23FB1810225A700C23D9
:104AB000FB18FA1C12789A700C23F91878680023F6
:104AC00000930023032201F029F903001800BD46DA
:104AD00004B080BD80B588B002AF786039600C2327
:104AE000FB1801221A700C23FB1812225A703B6823
:104AF0001A780C23FB189A703B685A780C23FB1821
:104B0000DA703B689A780C23FB181A713B68DA78E4
:104B10000C23FB185A713B681A790C23FB189A7105
:104B20003B685A790C23FB18DA713B689A790C239D
:104B3000FB181A723B68DA790C23FB185A720C23A3
:104B4000F91878680023009300230A2201F0E6F8A0
:104B500003001800BD4606B080BD80B58AB002AF24
:104B6000F860B9607A601423FB1801221A701423CC
:104B7000FB1813225A70BB681B0EDAB21423FB1801
:104B80009A70BB681B0CDAB21423FB18DA70BB688E
:104B90001B0ADAB21423FB181A71BB68DAB21423A9
:104BA000FB185A717B681B0EDAB21423FB189A713A
:104BB0007B681B0CDAB21423FB18DA717B681B0AC2
:104BC000DAB21423FB181A727B68DAB21423FB18CA
:104BD0005A721423F918F8680023009300230A225C
:104BE00001F09CF803001800BD4608B080BD80B5F8
:104BF00086B002AF786039600823FB1801221A7072
:104C00000823FB1814225A703B681B0EDAB20823E3
:104C1000FB189A703B681B0CDAB20823FB18DA7099
:104C20003B681B0ADAB20823FB181A713B68DAB238
:104C30000823FB185A710823F91878680023009399
:104C40000023062201F06AF803001800BD4604B0F4
:104C500080BD90B585B000AF786039600023BB603F
:104C60000F23FC180823FA187B6811001800FFF7BF
:104C700009FE030023700F23FB181B78002B0CD1B7
:104C8000BB68002B09D0BA680F23FC187B681100A1
:104C90001800FFF7ACFF030023700F23FB181B78ED
:104CA000002B05D13B68002B02D0BA683B681A6024
:104CB0000F23FB181B781800BD4605B090BD80B5CA
:104CC00086B002AF786008001100FB1C021C1A704D
:104CD000BB1C0A1C1A70BB1C1B789B005AB2FB1C25
:104CE0001B785BB213435AB20F23FB181A700C23C4
:104CF000FB1801221A700C23FB1816225A700C2381
:104D0000FB180F22BA1812789A700C23F9187868D9
:104D1000002300930023032201F000F80300180091
:104D2000BD4604B080BD80B588B002AFF8607A603F
:104D30000B23FB180A1C1A701023FB1801221A708F
:104D40001023FB1817225A701023FB180B22BA18D5
:104D500012789A707B681B0CDAB21023FB18DA7099
:104D60007B681B0ADAB21023FB181A717B68DAB26F
:104D70001023FB185A711023F918F86800230093C8
:104D80000023062200F0CAFF03001800BD4606B04B
:104D900080BD80B588B002AFF8600823FB18198089
:104DA0007A601023FB1801221A701023FB181B22B3
:104DB0005A700823FB185B78DB18DBB20822BA189C
:104DC00012789B18DAB21023FB189A707B681B0EBE
:104DD000DAB21023FB18DA707B681B0CDAB21023EE
:104DE000FB181A717B681B0ADAB21023FB185A7180
:104DF0007B68DAB21023FB189A711023F918F8684F
:104E0000002300930023072200F088FF030018000E
:104E1000BD4606B080BD90B589B002AF78600C0089
:104E200010001900FB1C221C1A703B00021C1A8087
:104E3000BB1C0A1C1A700C23FB1803221A700C23CB
:104E4000FB1800225A700C23FB18FA1C12789A7077
:104E50003B001B881B0A9BB2DAB20C23FB18DA70EA
:104E60003B001B88DAB20C23FB181A710C23FB18C9
:104E7000BA1C12785A710C23FB182822BA1812781F
:104E80009A710C23FB182C22BA181278DA7130238D
:104E9000FB181B881B0A9BB2DAB20C23FB181A7290
:104EA0003023FB181B88DAB20C23FB185A72342308
:104EB000FB181A780C23FB189A720C23F9187868DF
:104EC0000023009300230B2200F028FF03001800AA
:104ED000BD4607B090BD80B586B002AF78600A00CD
:104EE000FB1C1A700C23FB1803221A700C23FB18EE
:104EF00004225A70FB1C1B78002B01D0012200E019
:104F000000220C23FB189A700C23F91878680023F0
:104F100000930023032200F001FF03001800BD46A8
:104F200004B080BD80B586B002AF786039600C23D4
:104F3000FB18094A12881A803A680C23F918786815
:104F4000012300931300022200F09EFE03001800CC
:104F5000BD4604B080BDC046607B010090B5274CC3
:104F6000A54404AFF860080011007B60244BB62212
:104F700092009446BC446344021C1A70214BB62232
:104F800092009446BC4463440A1C1A701E4BB6221D
:104F900092009446BC4463441800B0239B001A005E
:104FA00000210EF095F9194BFB1820221A700023EE
:104FB0003B617B683B61154BFB181C78114BB6229B
:104FC00092009446BC4463441A780D4BB621890084
:104FD0008C46BC4463441978F8683B6902931423F7
:104FE000FB18019300230093230000F0C5FA03008F
:104FF0001800BD46B7239B009D4490BD14FDFFFFE4
:1050000033FDFFFF32FDFFFF3CFDFFFFD702000035
:1050100090B5D3B004AFF860080011007B60244B5A
:105020009C2252009446BC446344021C1A70214BDB
:105030009C2252009446BC4463440A1C1A701E4BC6
:105040009C2252009446BC446344180090235B00A9
:105050001A0000210EF03CF93823FF33FB18202200
:105060001A7000233B617B683B613823FF33FB18D8
:105070001C78104B9C2252009446BC4463441A781E
:105080000B4B9C2149008C46BC4463441978F8685A
:105090003B6902931423FB1801930123009323001F
:1050A00000F06AFA03001800BD464FB090BDC0463C
:1050B000D3FEFFFFD2FEFFFFDCFEFFFF80B586B010
:1050C00002AF78600C23FB18084A12881A800C2360
:1050D000F9187868002300930023022200F01EFED6
:1050E00003001800BD4604B080BDC046647B0100CB
:1050F00090B58BB002AF786039601C23FB183D4A35
:1051000012881A800C23FB18180010231A000021A3
:105110000EF0DEF81F23FC180C23FA181C23F918D4
:105120007868102300931300022200F0ADFD030005
:1051300023701F23FB181B78002B53D10C23FB1863
:105140001B781A060C23FB185B781B04D2180C235F
:10515000FB189B781B02D3180C22BA18D2789B1824
:105160001A003B681A600C23FB181B791A060C23E3
:10517000FB185B791B04D2180C23FB189B791B02CC
:10518000D3180C22BA18D2799B181A003B685A60BF
:105190000C23FB181B7A1A060C23FB185B7A1B04E2
:1051A000D2180C23FB189B7A1B02D3180C22BA18B6
:1051B000D27A9B181A003B689A600C23FB181B7B61
:1051C0001A060C23FB185B7B1B04D2180C23FB185C
:1051D0009B7B1B02D3180C22BA18D27B9B181A0097
:1051E0003B68DA601F23FB181B781800BD4609B026
:1051F00090BDC046687B010080B582B000AF020060
:10520000FB1D1A70FB1D1B780F221340DBB2180028
:10521000BD4602B080BD80B582B000AF0200FB1D6C
:105220001A70FB1D1B7803221340DBB21800BD4629
:1052300002B080BD90B58BB002AFF86008001100DD
:105240007B600B23FB18021C1A700A23FB180A1C34
:105250001A701F23FC183023FB181B78180000F06D
:1052600063F9030023701E23FC183023FB181B78FE
:10527000180000F031F9030023701423FB180322F7
:105280001A701423FB1806225A701423FB180B22E1
:10529000BA1812789A701423FB180A22BA181278D6
:1052A000DA701423FB181E22BA1812781A710A2316
:1052B000FB181B789AB21F23FB181B7899B21C238A
:1052C000FB184A431A807A681423F918F8681C23DB
:1052D000FB181B8800931300052200F0D5FC030087
:1052E0001800BD4609B090BD80B582B000AF7860AF
:1052F0000A00BB1C1A80BB1C1B887A68D3181B7859
:105300009BB21B029AB2BB1C1B8801337968CB1875
:105310001B789BB2D3189BB21800BD4602B080BD6B
:10532000F0B59FB000AF78670B007222BA181380F7
:105330007223FB181A887B6F9B181B78BB650023B0
:10534000FB65BB6D1B067B6500233B657223FB1869
:105350001B885A1C7B6F9B181B78BB640023FB6463
:10536000BB6C1B047B6400233B64386D796D3B6C24
:105370007C6CC01861417223FB181B889A1C7B6FE0
:105380009B181B78BB630023FB63BB6B1B027B6317
:1053900000233B633B6B7C6BC01861417223FB189D
:1053A0001B88DA1C7B6F9B181B78BB620023FB6297
:1053B000BB6A1B007B6200233B623B6A7C6AC018AD
:1053C00061417223FB181B881A1D7B6F9B181B7889
:1053D000BB610023FB61BB69FC691A00120A7A6198
:1053E0001B063B613B697C691B184C41190022007C
:1053F0007223FB181B88581D7B6F1B181B78BB661C
:105400000023FB66BB6E1B0CF86E00047866786E9A
:1054100018437866BB6E1B043B663B6E7C6E5B1864
:105420005441BB66FC667223FA1812880632796F03
:105430008A181278BA600022FA60B868F968020027
:10544000120E0B001E02164303001D02BB6EFC6E03
:105450005B1974417222BA1812880732796F8A1860
:1054600012783A6000227A6039687A685B18544191
:1054700018002100BD461FB0F0BD80B586B000AF5A
:10548000F8607A600A23FB180A1C1A801723FB189D
:1054900000221A7017E01723FB181B787A68D318BC
:1054A0000A22BA1811881722BA1812788A1811001D
:1054B000FA68521812781A701723FB181A781723F3
:1054C000FB1801321A701723FB181B78052BE2D941
:1054D000C046BD4606B080BD80B584B000AF0200B6
:1054E000FB1D1A700F23FB1800221A70FB1D1B787E
:1054F000012B08D0022B0BD0002B0ED10F23FB1851
:1055000001221A7009E00F23FB1804221A7004E02C
:105510000F23FB1801221A70C0460F23FB181B78BB
:105520001800BD4604B080BD80B584B000AF020055
:10553000FB1D1A700F23FB1800221A70FB1D1B782D
:10554000012B08D0022B0BD0002B0ED10F23FB1800
:1055500016221A7009E00F23FB1809221A7004E0C2
:105560000F23FB184E221A70C0460F23FB181B781E
:105570001800BD4604B080BDB0B588B002AF7860F9
:105580000C0010001900FB1C221C1A70BB1C021C12
:105590001A707B1C0A1C1A701723FB18FA1C12784D
:1055A0001A701623FB1800221A701523FB18BA1C58
:1055B00012781A701123FB1800221A709BE0102336
:1055C000FA181523FB18791C0C781B78D8B2E1B2B5
:1055D000884200D9231C13700F23FC18FD6A102386
:1055E000FB181A781723FB18197878682823FB18FA
:1055F0001B7800932B00FFF71DFE030023700F2381
:10560000FB181B78002B03D00F23FB181B787BE0C3
:105610003C6BFA6A1623FB1819781023FB181878CC
:105620002823FB181B780093230000F071F828232F
:10563000FB181B781800FFF777FF03009CB22823A4
:10564000FB181B781800FFF76FFF03001900FF23FA
:10565000980012F071FA0300202B0EDC2823FB18AF
:105660001B781800FFF760FF03001900FF23980064
:1056700012F062FA03009BB200E020230C22BA1859
:10568000634313801223FB1800221A800DE01223BB
:10569000FB181B88FA6AD31800221A701223FB1811
:1056A0001A881223FB1801321A801223FA180C23CD
:1056B000FB1812881B889A42E9D31723FB1817227C
:1056C000B9181022BA18097812788A181A70162395
:1056D000FB181622B9181022BA18097812788A18FD
:1056E0001A701523FB181522B9181022BA18097858
:1056F00012788A1A1A701523FB181B78002B00D019
:105700005DE71123FB181B781800BD4606B0B0BD3D
:1057100090B585B000AFBA607B600F23FB18021C08
:105720001A700E23FB180A1C1A702023FB181B7812
:10573000012B10D0022B1AD0002B00D023E07C6864
:10574000BA680E23FB1819780F23FB18187823006A
:1057500000F01DF817E07C68BA680E23FB18197872
:105760000F23FB181878230000F0A5F80BE07C68E5
:10577000BA680E23FB1819780F23FB18187823003A
:1057800000F0FCF8C046C046BD4605B090BD90B5DF
:1057900087B000AFBA607B600F23FB18021C1A7041
:1057A0000E23FB180A1C1A701723FB1800221A700C
:1057B00074E01723FB181B789AB21423FB181621E8
:1057C0004A431A800E23FB181A781723FB181B78FC
:1057D000D3185B017A68D3183B611423FB181B882C
:1057E000BA68D3181A783B691A701423FB181B88FF
:1057F0000133BA68D3181A783B695A701423FB181E
:105800001B880233BA68D3181B785AB23B699A7066
:105810001423FB181B880333BA68D3181A783B6922
:10582000DA701423FB181B88043399B23B691A1DE4
:10583000BB681800FFF721FE1423FB181B880A33EE
:105840009AB2BB6811001800FFF74EFD03001AB2B0
:105850003B695A811423FB181B880C339AB2BB682E
:1058600011001800FFF75CFD03000C003A6913619A
:1058700054611423FB181B8814339AB2BB681100BF
:105880001800FFF731FD03001A003B691A83172344
:10589000FB181A781723FB1801321A701723FA180D
:1058A0000F23FB1812781B789A4200D281E7C0467A
:1058B000BD4607B090BD80B586B000AFBA607B60D2
:1058C0000F23FB18021C1A700E23FB180A1C1A70F7
:1058D0001723FB1800221A7044E01723FB181B78CB
:1058E0009AB21423FB18111CC9008A181A800E23BF
:1058F000FB181A781723FB181B78D3181A0013000B
:10590000DB009B187A68D3183B611423FB181B88B3
:10591000BA68D3181A783B691A701423FB181B88CD
:105920000133BA68D3181A783B695A701423FB18EC
:105930001B880233BA68D3181B785AB23B699A7035
:105940001423FB181B88033399B23B69DA1CBB682C
:105950001800FFF792FD1723FB181A781723FB187E
:1059600001321A701723FA180F23FB1812781B78CC
:105970009A42B2D3C046BD4606B080BD90B587B04E
:1059800000AFBA607B600F23FB18021C1A700E2355
:10599000FB180A1C1A701723FB1800221A7026E144
:1059A0001723FB181B789AB21423FB184E214A4385
:1059B0001A800E23FB181A781723FB181B78D318AC
:1059C0001A00582353437A68D3183B611423FB18F9
:1059D0001B88BA68D3181A783B691A701423FB180D
:1059E0001B880133BA68D3181A783B695A7014239C
:1059F000FB181B880233BA68D3181B785AB23B696C
:105A00009A701423FB181B880333BA68D3181A78CA
:105A10003B69DA701423FB181B8804339AB2BB6805
:105A200011001800FFF760FC03001A003B699A8020
:105A30001423FB181B8806339AB2BB6811001800A8
:105A4000FFF752FC03001A003B69DA801423FB18AD
:105A50001B8808339AB2BB6811001800FFF744FC9A
:105A600003001A003B691A811423FB181B880A33B0
:105A700099B23B690A331A00BB681800FFF7FDFCB6
:105A80001423FB181B88103399B23B6910331A009A
:105A9000BB681800FFF7F1FC1423FB181B881633B2
:105AA00099B23B6916331A00BB681800FFF7E5FC92
:105AB0001423FB181B881C339AB2BB681100180012
:105AC000FFF72EFC03000C003A69136254621423A2
:105AD000FB181B8824339AB2BB6811001800FFF72B
:105AE00003FC03001A003B691A851423FB181B886A
:105AF00026339AB2BB6811001800FFF7F5FB0300CC
:105B00001A003B695A851623FB1800221A701AE006
:105B10001623FB181B781422BA1811881622BA18FB
:105B200012788A182832B9688A1810783A692C21B4
:105B3000D3185B18021C1A701623FB181A78162348
:105B4000FB1801321A701623FB181B781F2BDFD9A4
:105B50001423FB181B8848339AB2BB681100180045
:105B6000FFF7C2FB030019003B694C229952142332
:105B7000FB181B884A33BA68D31819783B694E2240
:105B800099541423FB181B884B33BA68D3181B781D
:105B90001A00012313405A1E9341D9B23B69502287
:105BA00099541423FB181B884B33BA68D3181B78FD
:105BB0001A00022313405A1E9341D9B23B694F2267
:105BC00099541423FB181B884C339AB2BB681100FC
:105BD0001800FFF789FB030019B23B695222995262
:105BE0001723FB181A781723FB1801321A70172392
:105BF000FA180F23FB1812781B789A4200D2CFE6CE
:105C0000C046BD4607B090BD80B584B000AF786097
:105C10007B68FB60FB6806229A5A00231204120C70
:105C20001B0C1B0413430021180011F0B5FE0120CA
:105C300011F09AFDFB6806229A5A00231204120CF6
:105C40001B0C1B0413430121180011F0A5FE0023B7
:105C50001800BD4604B080BD80B584B000AF786048
:105C60007B68FB60FB680021586811F095FE0120FD
:105C700011F07AFDFB680121586811F08DFE0023B8
:105C80001800BD4604B080BD80B586B000AFF86096
:105C9000B9603B60BB1D1A80FB687B611323FB1856
:105CA00000221A707B690021986811F0FDFE7B6963
:105CB0000021586811F070FE7B691868BB1D1A88B6
:105CC000BB68190011F060FD7B690121586811F073
:105CD00063FE7B690021986811F0E6FE7B69002174
:105CE000586811F059FE7B691B681322B91801220C
:105CF000180011F049FD7B691B682022BA18128830
:105D00003968180011F058FD7B690121586811F0BD
:105D100043FE00231800BD4606B080BD80B586B0A6
:105D200000AFF860B9603B60BB1D1A80FB687B6107
:105D30007B690021986811F0B7FE7B6900215868E3
:105D400011F02AFE7B691868BB1D1A88BB68190010
:105D500011F01AFD7B691B682022BA181288396875
:105D6000180011F011FD7B690121586811F014FE33
:105D700000231800BD4606B080BD80B586B000AFD8
:105D8000F860B9607A601A00BB1C1A80FB687B61FE
:105D90001323FB1800221A707B690021986811F008
:105DA00083FE7B690021586811F0F6FD7B691B6852
:105DB000B9680222180011F0E7FC7B6901215868DC
:105DC00011F0EAFD7B690021986811F06DFE7B6996
:105DD0000021586811F0E0FD7B691868BB1C1A8827
:105DE0007B68190011F0E8FC7B690121586811F00B
:105DF000D3FD00231800BD4606B080BD80B500AFBE
:105E0000074B1B78002B08D1054B01221A7000F0BC
:105E100009F800F01FF800F035F8C046BD4680BD17
:105E2000EC1F012080B582B000AF00237B6007E04B
:105E3000074B7A6892000021D1507B6801337B6068
:105E40007B681F2BF4D9C046BD4602B080BDC0465A
:105E5000F01F012080B582B000AF00237B6007E017
:105E6000074A7B68D31800221A707B6801337B6075
:105E70007B682F2BF4D9C046BD4602B080BDC0461A
:105E8000BC1F012080B582B000AF00237B6007E01B
:105E9000074B7A6852000021D1527B6801337B6046
:105EA0007B68042BF4D9C046BD4602B080BDC04615
:105EB000AC1F012080B586B000AFF860B9607A6091
:105EC000FB687B61BB683B6107E07B695A1C7A61B8
:105ED0003A69511C396112781A707B685A1E7A60CF
:105EE000002BF2D1FB681800BD4606B080BDFFFF55
:105EF00080B584B000AF1E4BFB601E4BBB601E4BD9
:105F00007B607A68F968BB681800FFF7D3FF1B4B0A
:105F1000FB601B4BBB601B4A194BD31A7B607A6832
:105F2000F968BB681800FFF7C5FF174BFB60174BFC
:105F3000BB60174A154BD31A7B607A68F968BB6857
:105F40001800FFF7B7FF134BFB60134BBB60134AFE
:105F5000114BD31A7B607A68F968BB681800FFF7A9
:105F6000A9FF0F4B034A9A60C046BD4604B080BDEE
:105F70000000000000040020C0000000B387010002
:105F8000E009002068DA00205B5B020088DD002069
:105F900080E300205361020080E30020041F012001
:105FA00000ED00E080B58EB000AFF860B9607A60B7
:105FB0003B603723FB1801221A707A681423FB1800
:105FC000DA611423FB183A689A601423FB183A6CC0
:105FD000DA601423FB18FA685A611423FB18BA68B4
:105FE0001A611423FB1801221A761423FB180122CC
:105FF0005A760E4B1B681B69002107209847031E29
:1060000001D005230EE0094B1B681B691422BA1846
:1060100011000A209847031E01D0052302E0372310
:10602000FB181B781800BD460EB080BDDC20012097
:1060300080B586B000AFF860B9607A6000237B61FC
:106040000CE0BB68FA6812781A70BB680133BB6059
:10605000FB680133FB607B6901337B617A697B6894
:106060009A42EED3C046BD4606B080BD80B500AFB3
:106070000A4B1B78DBB2002B0CD1084B01221A70A3
:10608000074B00221A70074B00221A70064B0022A1
:106090001A70C046C046BD4680BDC046E020012003
:1060A000E1200120E2200120E320012080B582B020
:1060B00000AF0200FB1D1A70FB1D1B78012B02D9DB
:1060C00001235B422CE0FB1D1B78012B09D1164AF2
:1060D0009023DB00D35CDBB2002B02D001235B42B8
:1060E0001EE0FB1D1B78002B09D10F4A9223DB0019
:1060F000D35CDBB2002B02D001235B4210E0012015
:1061000011F0E2FB0849FB1D1B7880225242134329
:10611000DAB29C23DB00CA54012011F0BDFB00233E
:106120001800BD4602B080BD00E0014080B500AF60
:10613000034A044BD35CDBB21800BD4680BDC046A9
:1061400000E00140E104000080B500AF034A13689D
:1061500001210B431360C046BD4680BD00080740C7
:1061600080B500AF034A136801218B431360C0461A
:10617000BD4680BD0008074080B58CB000AFF86018
:10618000B9607A603B60FB689AB2BB689BB213430C
:106190009AB27B689BB213439AB23B689BB213439B
:1061A0009AB2BB6B9BB213439AB21023FB181A80AE
:1061B0001023FB187A6C5A601023FB18214A9A604E
:1061C0001023FB180122DA603A6C1023FB185A6185
:1061D0001023FB18FA6B1A611023FB1800221A76A1
:1061E0001023FB1800225A76174B1B685B689847F0
:1061F000031E01D0FB6C9847134B1B68DB68102211
:10620000BA181100A8209847031E01D0FB6C9847CC
:106210000D4B1B685B69BA6C110001209847031E87
:1062200001D0FB6C9847084B1B681B6900210020BC
:106230009847031E01D0FB6C9847C046BD460CB082
:1062400080BDC046000907404C22012080B58CB0BB
:1062500000AFF860B9607A603B60FB689AB2BB68D7
:106260009BB213439AB27B689BB213439AB23B68CA
:106270009BB213439AB2BB6B9BB213439AB21023E7
:10628000FB181A801023FB187A6C5A601023FB1835
:106290001F4A9A601023FB180122DA603A6C10231F
:1062A000FB185A611023FB18FA6B1A611023FB18B4
:1062B00000221A761023FB1800225A76154B1B6811
:1062C0005B689847031E01D0BB6C9847114B1B6855
:1062D000DB681022BA181100A8209847031E01D0CD
:1062E000BB6C98470B4B1B689B699847031E01D0FA
:1062F000BB6C9847074B1B681B690021002098471F
:10630000031E01D0BB6C9847C046BD460CB080BD93
:10631000000907404C22012080B58CB000AFF86026
:10632000B9607A603B60FB689AB2BB689BB213436A
:106330009AB27B689BB213439AB23B689BB21343F9
:106340009AB2BB6B9BB213439AB21023FB181A800C
:106350001023FB18234A5A601023FB187A6C9A60AA
:106360001023FB180122DA603A6C1023FB185A61E3
:106370001023FB18FA6B1A611023FB1800221A76FF
:106380001023FB1800225A76174B1B685B6898474E
:10639000031E01D0FB6C9847134B1B68DB6810226F
:1063A000BA181100A9209847031E01D0FB6C98472A
:1063B0000D4B1B685B69BA6C110001209847031EE6
:1063C00001D0FB6C9847084B1B681B69002100201B
:1063D0009847031E01D0FB6C9847C046BD460CB0E1
:1063E00080BDC046000A07405022012080B584B01D
:1063F00000AF78605A4B1B78002B00D081E0594BDE
:106400001B78012B0ED1584B1B881800564B1B884C
:1064100019007B681A0000F0B5F800F00BFEFFF7DA
:1064200093FE99E00C23FB1820221A700C23FB1812
:106430001B787F2B0BD84D490C23FB181B781A00B7
:106440001F23134001229A40C0235B00CA500D2332
:10645000FB1820221A700D23FB181B787F2B0BD8FA
:1064600042490D23FB181B781A001F2313400122F9
:106470009A40C0235B00CA50202011F0DDF9202093
:1064800011F0DAF90E23FB1820221A700E23FB18E4
:106490001B787F2B0FD835490E23FB181B781A0069
:1064A0001F23134001229A40130080228B50BFF318
:1064B0004F8FBFF36F8F0F23FB1820221A700F230B
:1064C000FB181B787F2B0FD828490F23FB181B784C
:1064D0001A001F23134001229A40130080228B5080
:1064E000BFF34F8FBFF36F8F00220021202011F0E8
:1064F000C3FA00220021202011F0BEFA7B689847E1
:106500002AE01B4B1B88032B0ED11A4B1A001E21AD
:10651000202011F0B1FA184B1A001E21202011F092
:10652000ABFA00F05BFC13E0114B1B88042B0ED17F
:10653000124B1A001E21202011F09EFA104B1A0057
:106540001E21202011F098FA00F0F0FA00E0C04679
:1065500000F070FDFFF7F8FDC046BD4604B080BDF9
:1065600028210120E42001201E22012000E100E07A
:106570001C220120A18E0020218F0020A18F00204D
:106580000591002080B584B000AFF860B9607A60F2
:10659000694B1B78012B03D1684B01221A8002E062
:1065A000664B00221A80664B00221A60654B00225F
:1065B0001A6010E0634B1A68624B1B6862499B00CB
:1065C000CB1804331968614B9200D1505D4B1B68A6
:1065D0005A1C5C4B1A60584B1B781A00594B1B68AD
:1065E0009A42E7D8584B9A8B594B1A80564B9A8C43
:1065F000584B1A80544BDA8C574B1A80524B5A68BE
:10660000564B1A60564B574A1A60574B1A88574BCD
:106610001A804C4B00221A6010E04A4B1A68494B12
:106620001B6849499B00CB1804331968504B9200F2
:10663000D150444B1B685A1C424B1A603E4B1B788E
:106640001A00404B1B689A42E7D83E4B00221A6062
:10665000484B1B78012B03D1474B01221A8002E0E3
:10666000454B00221A80454B00221A70444B0022F1
:106670001A60444B00221A6010E0424B1A68414BEA
:106680001B6841499B00CB18043319683F4B9200AB
:10669000D1503C4B1B685A1C3A4B1A60354B1B7847
:1066A0001A00384B1B689A42E7D8374B1A8A384B86
:1066B0001A80354B1A8B374B1A80334B5A8B364B1B
:1066C0001A80314B5A68354B1A60354B354A1A607F
:1066D000354B1A88354B1A802A4B00221A6010E07D
:1066E000284B1A68274B1B6827499B00CB1804339B
:1066F00019682F4B9200D150224B1B685A1C214B1A
:106700001A601C4B1B781A001E4B1B689A42E7D874
:106710001C4B00221A607A68FB681100180000F018
:1067200049F87A68BB681100180000F01FF9C046EC
:10673000BD4604B080BDC046742D012074210120E7
:10674000782101206C210120E42001207C210120FE
:10675000B0210120C2210120C42101209421012067
:10676000C821012000090740082201202022012021
:1067700098210120202D0120CE210120CC210120B3
:10678000D0210120702101200C210120D4210120E1
:10679000F0210120FC210120FE210120E021012027
:1067A00000220120000A0740142201202222012099
:1067B000E4210120B0B58AB006AF786039605A4B49
:1067C0001B88082B02D0102B05D00AE00E23FB18E3
:1067D00000221A800BE00E23FB18802252011A803F
:1067E00005E00E23FB18802252011A80C0464F4B51
:1067F0001B78012B64D14E4B1B88012B1CD14D4BB8
:106800001B88012B18D10E23FB1819884A4B1B88B3
:106810001D004A4B1B688022D400802210023A6877
:106820000492039302957B6801931023009308233D
:106830002200FFF70BFD73E00E23FB1819883E4B77
:106840001B881D003D4B1B688022D4008022100253
:106850003A6805923A4A0492039302957B68019341
:106860001023009308232200FFF786FC304B1B887F
:10687000012B13D1334B1B685A1C324B1A60324B1D
:106880001B68324A12889A182C4B1A602B4B1A68D4
:106890002D4B1A602E4B2F4A1A6041E02A4B1B6881
:1068A0002D4A12889A18254B1A60294B294A1A60DA
:1068B000254B1B68284A12889A18284B1A602FE02B
:1068C0000E23FB181988264B1B881D001B4B1B68C9
:1068D0008022D400802210023A680592184A04925D
:1068E000039302957B6801931023009308232200F1
:1068F000FFF742FC1B4B1B685A1C1A4B1A60194BC2
:106900001A680D4B5200D25A154B1A80154B1A6853
:106910000D4B9200D258094B1A600D4B124A1A6067
:10692000C046BD4604B0B0BD1E220120742D01201A
:10693000C2210120C421012008220120942101202C
:1069400045920020782101207C210120B4210120E2
:10695000C821012000090740B02101209821012011
:10696000202201206C21012020090740B0B58AB007
:1069700006AF786039605B4B1B88082B02D0102B68
:1069800005D00AE00E23FB1800221A800BE00E232C
:10699000FB18802252011A8005E00E23FB1880228A
:1069A00052011A80C046504B1B78012B66D14F4BC9
:1069B0001B88012B1ED14E4B1B88012B1AD10E2395
:1069C000FB1819884B4B1B881D004B4B1B68802202
:1069D0001401802210023A680592484A04920393F7
:1069E00002957B6801930023009304232200FFF7A4
:1069F00093FC73E00E23FB1819883E4B1B881D0087
:106A00003D4B1B6880221401802210023A680592D7
:106A10003B4A0492039302957B6801930023009301
:106A200004232200FFF778FC304B1B88012B13D185
:106A3000344B1B685A1C334B1A60334B1B68334A68
:106A400012889A182C4B1A602B4B1A682E4B1A601E
:106A50002F4B304A1A6041E02B4B1B682E4A12889C
:106A60009A18254B1A602A4B2A4A1A60264B1B6833
:106A7000294A12889A18294B1A602FE00E23FB1816
:106A80001988274B1B881D001B4B1B688022140193
:106A9000802210023A680592194A049203930295E3
:106AA0007B6801930023009304232200FFF734FC4A
:106AB0001C4B1B685A1C1B4B1A601A4B1A680D4B57
:106AC0005200D25A164B1A80164B1A680E4B92007F
:106AD000D258094B1A600E4B134A1A60C046BD4685
:106AE00004B0B0BD1E220120202D0120FC21012078
:106AF000FE21012014220120E0210120FD9200202E
:106B0000A1920020D0210120D4210120F4210120D4
:106B100000220120000A0740F0210120E421012089
:106B20002222012070210120200A074080B582B076
:106B300000AF894B00221A60884B00221A60884BF4
:106B400000221A80874B00221A60FB1D00221A7057
:106B50000AE0FB1D1A78844B92000021D150FB1DE6
:106B60001A78FB1D01321A70804B1B78FA1D1278BF
:106B70009A42EED37E4B9A8B7E4B1A807C4B1B6ADB
:106B80009AB27D4B1A807A4B9A8C7C4B1A80784B48
:106B9000DA8C7B4B1A80764B5A687A4B1A60FB1D55
:106BA00000221A7010E0FB1D1A78FB1D1B7870493B
:106BB0009B00CB1804331968734B9200D150FB1D16
:106BC0001A78FB1D01321A70684B1B78FA1D127877
:106BD0009A42E8D36D4B6E4A1A606E4B00221A80BF
:106BE0006D4B00221A706D4B00221A60FB1D0022B3
:106BF0001A700AE0FB1D1A78694B92000021D150EF
:106C0000FB1D1A78FB1D01321A70664B1B78FA1DAA
:106C100012789A42EED3644B1A8A644B1A80624B04
:106C20005B699AB2624B1A805F4B1A8B614B1A8078
:106C30005D4B5A8B604B1A805B4B5A685F4B1A60F6
:106C4000FB1D00221A7010E0FB1D1A78FB1D1B783B
:106C500055499B00CB1804331968594B9200D15009
:106C6000FB1D1A78FB1D01321A704E4B1B78FA1D62
:106C700012789A42E8D3514B1A68524B1A60524B21
:106C8000524A1A60364B00221A80384B1B78013B5F
:106C9000374A9B00D31804331B68354A928B9B18E4
:106CA000334AD28C1000314A1278511E484A4900AA
:106CB0008A5A42439B182D4A1278511E444A490071
:106CC0008A5A9A1A274B1A60324B00221A80354B87
:106CD0001B78013B344A9B00D31804331B68324AAB
:106CE000128A9B18304A528B10002E4A1278511E7D
:106CF000384A49008A5A42439B182A4A1278511E40
:106D0000344A49008A5A9A1A244B1A607B1D202261
:106D10001A707B1D1B787F2B09D82F4B7A1D127898
:106D200011001F220A40012191400A001A60BB1D78
:106D300020221A70BB1D1B787F2B09D8264BBA1D49
:106D4000127811001F220A40012191400A001A60A6
:106D5000C046BD4602B080BD6C21012070210120DB
:106D600074210120782101207C210120742D012033
:106D700028210120B0210120C0210120C2210120B1
:106D8000C42101209421012098210120C821012043
:106D900000090740CE210120CC210120D021012073
:106DA000D4210120202D012050210120F02101209B
:106DB000FA210120FC210120FE210120E0210120F7
:106DC000E42101200422012000220120000A0740C2
:106DD000082201201422012000E100E080B582B0E9
:106DE00000AF734B00221A60724B00221A60724B84
:106DF00000221A80714B00221A60FB1D00221A70BB
:106E000010E0FB1D1A78FB1D1B786D499B00CB1809
:106E1000043319686B4B9200D150FB1D1A78FB1D8F
:106E200001321A70684B1B78FA1D12789A42E8D327
:106E3000664B9B8C654A928B53439BB201339AB24B
:106E4000634B1A805E4B1B6A9AB2624B1A805C4B92
:106E50009A8C614B1A805A4BDA8C604B1A80584BD3
:106E60005A685F4B1A60FB1D00221A7010E0FB1D70
:106E70001A78FB1D1B7852499B00CB180433196804
:106E8000584B9200D150FB1D1A78FB1D01321A702D
:106E90004D4B1B78FA1D12789A42E8D3524B534A55
:106EA0001A60534B00221A80524B00221A70524B28
:106EB00000221A60FB1D00221A7010E0FB1D1A78D8
:106EC000FB1D1B784D499B00CB18043319684C4BB4
:106ED0009200D150FB1D1A78FB1D01321A70494BEC
:106EE0001B78FA1D12789A42E8D3474B1B8B464A0F
:106EF000128A53439BB201339AB2444B1A803F4BE0
:106F00005B699AB2424B1A803C4B1A8B414B1A80F8
:106F10003A4B5A8B404B1A80384B5A683F4B1A6099
:106F2000FB1D00221A7010E0FB1D1A78FB1D1B7858
:106F300032499B00CB1804331968394B9200D15069
:106F4000FB1D1A78FB1D01321A702E4B1B78FA1D9F
:106F500012789A42E8D3314B1A68324B1A60324B9E
:106F6000324A1A607B1D20221A707B1D1B787F2BF2
:106F700009D82F4B7A1D127811001F220A400121D7
:106F800091400A001A60BB1D20221A70BB1D1B789D
:106F90007F2B09D8264BBA1D127811001F220A40F8
:106FA000012191400A001A60C046BD4602B080BD72
:106FB0006C21012070210120742101207821012001
:106FC000282101207C210120742D0120E4200120B2
:106FD000B0210120C0210120C2210120C4210120B3
:106FE0009421012098210120C82101200009074097
:106FF000CE210120CC210120D021012050210120CF
:10700000D4210120202D01200C210120F02101207C
:10701000FA210120FC210120FE210120E021012094
:10702000E42101200422012000220120000A07405F
:1070300000E100E080B500AF084A137B01210B435B
:107040001373064A137B02210B431373034A137B0A
:107050007F210B401373C046BD4680BD000807402A
:1070600080B500AF064A137B01218B431373044A9A
:10707000137B02218B431373C046BD4680BDC046BF
:107080000008074080B582B000AF614B1B78013B20
:107090001A00604B1B689A4200D9A3E05E4B1B8824
:1070A00001339AB25C4B1A805C4B5D4A1A60594BB3
:1070B00000221A60584B1A885A4B1B889A4265D195
:1070C000554B00221A80584B1B685A1C564B1A60AD
:1070D000564B1B881A00544B1B689A4221D1524BC5
:1070E00000221A60202010F0A7FBFB1D20221A703E
:1070F000FB1D1B787F2B0ED84D49FB1D1B781A00FA
:107100001F23134001229A40130080228B50BFF3AB
:107110004F8FBFF36F8F00220021202010F0ACFCB6
:1071200072E03C4B00221A601EE03A4B1A68394B61
:107130001968404B8900C958364B18683E4B4000CF
:10714000C35AC9183D4B9200D150324B1A68314B8B
:1071500019683A4B8900C958364B9200D1502D4BD3
:107160001B685A1C2B4B1A60294B1B781A00294BA1
:107170001B689A42D9D8274B00221A60254B1A68FF
:107180002E4B9200D2582E4B1A603DE0214B00222C
:107190001A6015E01F4B1A68284B9200D358294AF1
:1071A00012889A18264B1A601A4B1A68244B1968D1
:1071B000224B9200D150174B1B685A1C154B1A607A
:1071C000134B1B781A00134B1B689A42E2D8114BE1
:1071D00000221A600F4B1A68184B9200D258184BB5
:1071E0001A6011E00B4B1B685A1C0A4B1A60094BC2
:1071F0001A68124B9200D258114B1A60074B1B6849
:1072000020331A00054B1A60C046BD4602B080BD4F
:10721000742D01206C21012074210120C82101203E
:1072200000090740C221012078210120C42101204A
:1072300000E100E07C210120B421012098210120FF
:1072400094210120B021012080B582B000AF694BAC
:107250001B78013B1A00684B1B689A4200D9B2E0C8
:10726000664B1B8801339AB2644B1A80644B654AA3
:107270001A60614B00221A60604B1A88624B1B88AF
:107280009A4274D15D4B00221A80604B1B685A1CD5
:107290005E4B1A605E4B1B881A005C4B1B689A425F
:1072A00030D15A4B00221A60FFF7DAFE594B002208
:1072B0001A70594B00221A70202010F0BDFAFB1DE5
:1072C00020221A70FB1D1B787F2B0ED85349FB1D03
:1072D0001B781A001F23134001229A4013008022BA
:1072E0008B50BFF34F8FBFF36F8F00220021202000
:1072F00010F0C2FBFEF734FF494B1B681800FFF784
:1073000075F872E03C4B00221A601EE03A4B1A6896
:10731000394B1968434B8900C958374B1868424BA1
:107320004000C35AC918414B9200D150324B1A68E1
:10733000314B19683D4B8900C9583A4B9200D150E6
:107340002D4B1B685A1C2C4B1A602A4B1B781A00B9
:10735000294B1B689A42D9D8274B00221A60264B2A
:107360001A68324B9200D258314B1A603DE0224BE2
:1073700000221A6015E0204B1A682C4B9200D3585B
:107380002C4A12889A182A4B1A601B4B1A68284BF1
:107390001968264B9200D150174B1B685A1C164B8C
:1073A0001A60144B1B781A00134B1B689A42E2D8E0
:1073B000114B00221A60104B1A681C4B9200D258D5
:1073C0001B4B1A6011E00C4B1B685A1C0A4B1A60CD
:1073D000094B1A68154B9200D258154B1A60084B8E
:1073E0001B6820331A00064B1A60C046BD4602B027
:1073F00080BDC046202D012070210120CE2101201A
:1074000000220120000A0740FC210120D021012098
:10741000FE210120282101205021012000E100E06F
:1074200054220120D4210120F4210120E421012053
:10743000E0210120F021012080B586B000AFF86086
:10744000B9607A603B6000237B610DE0BB68FA683D
:1074500012781A70FA687B68D318FB60BB68013336
:10746000BB607B6901337B617A693B689A42EDD3EB
:10747000C046BD4606B080BD80B586B000AFF8609E
:10748000B9607A603B6000237B610DE0BB68FA68FD
:1074900012781A70BA687B68D318BB60FB68013336
:1074A000FB607B6901337B617A693B689A42EDD36B
:1074B000C046BD4606B080BD80B588B000AFF8605C
:1074C000B9607A603B607B6BBB610023FB611FE0AE
:1074D0007B68BA6812781A707B6801337B603B6BFB
:1074E0005A1EBB699A4207D9BA683B68D318BB6079
:1074F000BB690133BB6108E0BA68FB6AD2183B6B19
:10750000D31A0133BB600023BB61FB690133FB610C
:10751000FA69BB6A9A42DBD31023FB18BA691A6076
:107520001023FB18BA685A60FB681022BA1803CA05
:1075300003C3F868BD4608B080BD80B588B000AF11
:10754000F860B9607A603B607B6BBB610023FB61D4
:107550001FE07B68BA6812781A70BB680133BB60A1
:107560003B6B5A1EBB699A4207D97A683B68D318AD
:107570007B60BB690133BB6108E07A68FB6AD218A3
:107580003B6BD31A01337B600023BB61FB69013382
:10759000FB61FA69BB6A9A42DBD31023FB18BA6914
:1075A0001A601023FB187A685A60FB681022BA1818
:1075B00003CA03C3F868BD4608B080BD80B500AFFC
:1075C0005C4B1B78013B1A005B4B1B689A4200D94D
:1075D00093E05A4B1B8801339AB2584B1A80584B90
:1075E000584A1A60544B00221A60544B1A88564B62
:1075F0001B889A424ED3514B00221A80534B1B6872
:107600005A1C524B1A60524B1B881A004F4B1B6876
:107610009A4203D14D4B00221A6087E0464B00226C
:107620001A601EE0444B1A68434B1968494B8900A5
:10763000C958414B1868484B4000C35AC918474BBA
:107640009200D1503C4B1A683B4B1968434B890060
:10765000C958404B9200D150374B1B685A1C364BCF
:107660001A60344B1B781A00334B1B689A42D9D8E6
:10767000314B00221A60304B1A68394B5200D25AF3
:10768000384B1A802C4B1A68344B9200D258364B28
:107690001A604BE0284B00221A6015E0264B1A684E
:1076A0002E4B9200D358314A12889A182E4B1A60EA
:1076B000214B1A682C4B1968284B9200D1501E4B55
:1076C0001B685A1C1C4B1A601A4B1B781A001A4B69
:1076D0001B689A42E2D8184B00221A60164B1A68AF
:1076E0001F4B5200D25A1F4B1A80134B1A681B4B68
:1076F0009200D2581C4B1A6018E00F4B1B685A1CA2
:107700000D4B1A600C4B1A68154B5200D25A154B90
:107710001A80094B1A68114B9200D258124B1A600A
:10772000074B1B6820331A00054B1A60C046BD4644
:1077300080BDC046742D01206C21012074210120E0
:10774000C821012000090740C22101207821012021
:10775000C42101207C210120B42101209821012095
:10776000082201202022012094210120B0210120A3
:1077700080B582B000AF854B1B78013B1A00844B6B
:107780001B689A4200D9E3E0824B1B8801339AB20E
:10779000804B1A80804B814A1A607D4B00221A6010
:1077A0007C4B1A887E4B1B889A4200D29DE0794B15
:1077B00000221A807B4B1B685A1C7A4B1A607A4B4A
:1077C0001B881A00774B1B689A4252D1774B1B6873
:1077D000DB693A001000984780235B057B600BE073
:1077E000724B1B68DB693A0010009847C0467B6803
:1077F0005A1E7A60002B07D03B009B780122534031
:10780000DBB2002BECD100E0C046664B00221A60D0
:10781000FFF726FC664B00221A70664B1B689B69BB
:107820009847031E02D0644B1B6898475F4B1B6848
:107830009B699847031E02D05F4B1B6898475D4BBE
:107840001B689B689847031E02D05B4B1B689847D8
:10785000564B1B689B689847031E02D0564B1B680B
:107860009847FEF77DFC544B1B681800FEF7BEFDE1
:1078700087E0474B00221A601EE0454B1A68444BD4
:1078800019684E4B8900C958414B18684C4B400051
:10789000C35AC9184B4B9200D1503D4B1A683C4B10
:1078A0001968484B8900C958444B9200D150384B55
:1078B0001B685A1C364B1A60344B1B781A00344B29
:1078C0001B689A42D9D8324B00221A60304B1A6892
:1078D0003D4B5200D25A3D4B1A802D4B1A68394B02
:1078E0009200D2583A4B1A604BE0294B00221A60A2
:1078F00015E0274B1A68334B9200D358354A12884B
:107900009A18334B1A60224B1A68314B19682D4B69
:107910009200D1501E4B1B685A1C1D4B1A601B4B0A
:107920001B781A001A4B1B689A42E2D8184B0022A7
:107930001A60174B1A68244B5200D25A234B1A80F4
:10794000134B1A681F4B9200D258214B1A6018E053
:107950000F4B1B685A1C0E4B1A600D4B1A681A4BC2
:107960005200D25A194B1A80094B1A68154B9200D3
:10797000D258174B1A60084B1B6820331A00064B6D
:107980001A60C046BD4602B080BDC046202D012011
:1079900070210120CE21012000220120000A074091
:1079A000FC210120D0210120FE21012050220120B4
:1079B000E42001204C22012054220120D421012066
:1079C000F4210120E421012014220120222201209F
:1079D000E0210120F021012080B584B000AF020039
:1079E000FB1D1A70FB1D1B78013BFB60094AFB68FD
:1079F000DBB2191C07230B40D9B2536807200140A2
:107A00000906054803400B435360C046BD4604B019
:107A100080BDC04600080740FFFFFFF880B584B076
:107A200000AF78600F23FB1800221A704D4B1B78B3
:107A3000002B00D07EE04C4B1B78012B0BD17B68D8
:107A4000180000F095F80820FFF7C6FFFFF7F2FADC
:107A5000FEF77AFB81E00B23FB1820221A700B2320
:107A6000FB181B787F2B0BD840490B23FB181B7886
:107A70001A001F23134001229A40C0235B00CA5002
:107A80000C23FB1820221A700C23FB181B787F2B69
:107A90000BD836490C23FB181B781A001F23134000
:107AA00001229A40C0235B00CA5020200FF0C4FE80
:107AB00020200FF0C1FE0D23FB1820221A700D2389
:107AC000FB181B787F2B0FD828490D23FB181B7838
:107AD0001A001F23134001229A40130080228B506A
:107AE000BFF34F8FBFF36F8F0E23FB1820221A7046
:107AF0000E23FB181B787F2B0FD81C490E23FB1875
:107B00001B781A001F23134001229A401300802281
:107B10008B50BFF34F8FBFF36F8F002200212020C7
:107B20000FF0AAFF0022002120200FF0A5FF7B68A4
:107B3000984712E07B68180000F0A2F9094B9A8C74
:107B40000F23FB181A700F23FB181B781800FFF780
:107B500043FFFFF76FFAFEF7F7FAC046BD4604B0E1
:107B600080BDC04628210120E420012000E100E082
:107B7000B0B588B006AF78609D4B00221A609D4B6F
:107B800000221A609C4B01221A809C4B00221A6032
:107B90009B4B5A689B4B1A60994B9A8B9A4B1A8055
:107BA000974B9A8C994B1A80954BDA8C984B1A808C
:107BB000934B5A68974B1A60974B984A1A60984BA8
:107BC0001A88984B1A808E4B5A68974B1A60974BBD
:107BD00000221A80964B00221A70964B00221A60DF
:107BE000954B5A68954B1A60934B1A8A944B1A809E
:107BF000914B1A8B934B1A808F4B5A8B924B1A8056
:107C00008D4B5A68914B1A60904B1A68904B1A60D2
:107C1000904B914A1A60914B1A88914B1A80864B6F
:107C20005A68904B1A60904B1B78012B3CD1824BC9
:107C30005B8B012B38D1804B1B8B012B34D18B4BB1
:107C40001B881C00764B1B881D00724B1B68802212
:107C5000D100802210027A680592854A049203932B
:107C6000029501941023009308230A000021FEF7D7
:107C700083FA7D4B1B781C00784B1B881D00734BCF
:107C80001B6880221101802210027A680592794ACD
:107C900004920393029501941023009308230A0091
:107CA0000021FEF739FB90E0704B1B881C005C4BF9
:107CB0001B881D00574B1B688022D10080221002B8
:107CC0007A6805926A4A04920393029501941023FC
:107CD000009308230A000021FEF74EFA624B1B783E
:107CE0001C005E4B1B881D00584B1B688022110135
:107CF000802210027A6805925F4A049203930295EB
:107D000001941023009308230A000021FEF704FBCE
:107D1000554B1B78012B1FD1474B1B8B012B1BD1C4
:107D2000464B1B68554A12889A18484B1A60474BB5
:107D30001A68424B1A60454B1A68454B1A603B4B18
:107D400000221A803A4B00221A703A4B01221A6024
:107D5000404B414A1A6038E0434B1B78012B20D13D
:107D6000374B1B881A003A4B1B68D218374B1A60E6
:107D7000364B1A68364B1A60314B1B881A00344B4D
:107D80001B68D218374B1A60294B00221A70314BEE
:107D9000314A1A60254B1B8801339AB2234B1A8053
:107DA00013E02E4B1B881A00284B1B68D218274B58
:107DB0001A60284B1B6810331A00264B1A601C4BA4
:107DC0001B780133DAB21A4B1A700F4B1B881A005A
:107DD000104B1B68D2180F4B1A600A4B1B680A4ADB
:107DE00012889A18104B1A60C046BD4602B0B0BD4A
:107DF0006C210120702101207421012078210120B3
:107E0000E42001207C210120B0210120C221012099
:107E1000C421012094210120C8210120000907402C
:107E2000082201202022012098210120CE210120BA
:107E3000CC210120D02101200C210120D4210120BE
:107E4000F0210120FC210120FE210120E021012060
:107E50000422012000220120000A074014220120F0
:107E600022220120E42101201A2201201E220120C9
:107E700045920020FD92002071930020F421012002
:107E8000B0B58AB006AF7860754B00221A60754BAA
:107E900000221A60744B00221A80744B00221A6070
:107EA000734B5A68734B1A60714B9A8B724B1A80E2
:107EB0006F4B9A8C714B1A806D4BDA8C704B1A8019
:107EC0006B4B5A686F4B1A606F4B704A1A60704B5D
:107ED0001A88704B1A80704B5A68704B1A60704B3E
:107EE00000221A806F4B00221A706F4B00221A601A
:107EF0006E4B5A686E4B1A606C4B1A8A6D4B1A8027
:107F00006A4B1A8B6C4B1A80684B5A8B6B4B1A80DE
:107F1000664B5A686A4B1A60694B1A68694B1A605B
:107F2000694B6A4A1A606A4B1A001E2120200FF022
:107F3000A3FD4F4B9B8C012B33D14D4BDB8C012B85
:107F40002FD1644B1B881C00514B1B881D00484BD4
:107F50005B688022D100802210027A680492039329
:107F6000029501941023009308230A000021FEF7D4
:107F70006DF90F23FB1820221A700F23FB181B78B2
:107F80007F2B0AD8544B0F22BA18127811001F22E7
:107F90000A40012191400A001A60344B00221A6005
:107FA0005AE04C4B1B881C00394B1B881D00304B82
:107FB0005B688022D100802210027A680592474ACD
:107FC00004920393029501941023009308230A005E
:107FD0000021FEF7D1F80E23FB1820221A700E2381
:107FE000FB181B787F2B0AD83B4B0E22BA1812784D
:107FF00011001F220A40012191400A001A601C4B07
:108000009B8C012B13D11B4B1B68354A12889A1885
:108010001C4B1A601B4B1A68164B1A60124B00223D
:108020001A80124B1B685A1C104B1A6014E0124B3A
:108030001B881A00134B1B68D218124B1A600D4B89
:108040001B680D4A12889A18144B1A60064B1B883D
:1080500001339AB2044B1A80C046BD4604B0B0BD8D
:108060006C21012070210120742101207821012040
:10807000282101207C210120B0210120C2210120E2
:10808000C421012094210120C821012000090740BA
:108090000822012020220120E42001209821012033
:1080A000CE210120CC210120D0210120502101200E
:1080B000D4210120F0210120FC210120FE210120FA
:1080C000E02101200422012000220120000A0740B3
:1080D000BD9300201E22012000E100E04592002017
:1080E000B421012080B582B000AF5B4B1B78013317
:1080F000DAB2594B1A70584B1A78584B1B789A427F
:1081000000D297E0544B00221A70554B1B88013364
:108110009AB2534B1A80534B534A1A60504B1A88E9
:10812000524B1B889A4200D277E04D4B00221A80B6
:108130004A4B1B781A004E4B1B68D2184C4B1A60E6
:108140004C4B1B881A004A4B1B689A4255D14A4B2C
:108150001B68DB693A001000984780235B057B6051
:108160000BE0454B1B68DB693A0010009847C0469E
:108170007B685A1E7A60002B07D03B009B78012257
:108180005340DBB2002BECD100E0C046384B00225C
:108190001A603A4B00221A70394B00221A70394B80
:1081A0001B689B699847031E02D0374B1B68984792
:1081B000314B1B689B699847031E02D0324B1B68EA
:1081C0009847304B1B689B689847031E02D02E4B84
:1081D0001B689847284B1B689B689847031E02D072
:1081E000294B1B689847FEF73BFFFDF7B9FF264B6D
:1081F0001B681800FFF712FC2AE0244B1B68244A76
:1082000012889A18234B1A60224B1A681F4B1A6067
:10821000204B1A68204B1A601AE0204B1B881A006A
:108220001D4B1B68D2181B4B1A601A4B1A681A4B4D
:108230001A600DE01A4B1B881A00164B1B68D218E7
:10824000144B1A60074B1B6810331A00054B1A6059
:10825000C046BD4602B080BDCC2101201A220120BB
:10826000CE21012000220120000A0740FC2101202C
:10827000D0210120FE21012050220120E4200120F4
:10828000502D01204C22012054220120D421012014
:10829000F4210120E021012004220120F02101200D
:1082A0001422012080B586B000AFF860B9607A6012
:1082B0003B6000237B6114E07A697B689A4207D2B5
:1082C000BB68FA6812781A70BB680133BB6002E0C1
:1082D000FB681B783B61FB680133FB607B69013302
:1082E0007B617A693B689A42E6D3C046BD4606B0D8
:1082F00080BDFFFF80B582B000AF5C4B1B780133BF
:10830000DAB25A4B1A70594B1A78594B1B789A4269
:1083100000D299E0554B00221A70564B1B8801334E
:108320009AB2544B1A80544B544A1A60514B1A88D3
:10833000534B1B889A4200D279E04E4B00221A80A0
:108340004B4B1B781A004F4B1B68D2184D4B1A60D1
:108350004D4B1B881A004B4B1B689A4257D1494B17
:1083600000221A60494B00221A70494B00221A70F1
:10837000484B00221A70BB1D20221A70BB1D1B78AF
:108380007F2B0ED84449BB1D1B781A001F231340B6
:1083900001229A40130080228B50BFF34F8FBFF30E
:1083A0006F8F20200FF048FAFB1D20221A70FB1D52
:1083B0001B787F2B0AD83849FB1D1B781A001F2316
:1083C000134001229A40C0235B00CA5000220021C2
:1083D00020200FF051FB314B1B689B699847031E0F
:1083E00002D02F4B1B6898472C4B1B689B68984703
:1083F000031E02D02A4B1B689847FEF731FEFDF79B
:10840000AFFE274B1B681800FFF708FB2AE0254B3F
:108410001B68254A12889A18244B1A60234B1A6845
:10842000204B1A60214B1A68214B1A601AE0214B2D
:108430001B881A001E4B1B68D2181C4B1A601B4B62
:108440001A681B4B1A600DE01B4B1B881A00174B58
:108450001B68D218154B1A60074B1B6810331A00A3
:10846000054B1A60C046BD4602B080BDCC2101203C
:108470001A220120CE21012000220120000A0740FB
:10848000FC210120D0210120FE21012028210120F2
:1084900050210120FC2C012000E100E04C220120B1
:1084A00054220120D4210120F4210120E0210120C7
:1084B00004220120F02101201422012080B584B083
:1084C00000AF7860414B1B78012B0CD1404B1B88CF
:1084D0001A007B681900100000F07EF8FEF7AAFD74
:1084E000FDF732FE6DE00C23FB1820221A700C23DE
:1084F000FB181B787F2B0BD836490C23FB181B78F5
:108500001A001F23134001229A40C0235B00CA5067
:108510000D23FB1820221A700D23FB181B787F2BCC
:108520000BD82C490D23FB181B781A001F2313406E
:1085300001229A40C0235B00CA5020200FF07CF932
:1085400020200FF079F90E23FB1820221A700E2339
:10855000FB181B787F2B0FD81E490E23FB181B78A6
:108560001A001F23134001229A40130080228B50CF
:10857000BFF34F8FBFF36F8F0F23FB1820221A70AA
:108580000F23FB181B787F2B0FD812490F23FB18E2
:108590001B781A001F23134001229A4013008022E7
:1085A0008B50BFF34F8FBFF36F8F0022002120202D
:1085B0000FF062FA0022002120200FF05DFA7B68A4
:1085C0009847C046BD4604B080BDC046E4200120A7
:1085D0001E22012000E100E0B0B58EB002AF78604D
:1085E00039605C4B01221A805B4B00221A605B4BA6
:1085F0005A685B4B1A60594B9A8B5A4B1A80574BEF
:108600009A8C594B1A80554BDA8C584B1A80534B25
:108610005A68574B1A60574B574A1A60574B1A887B
:10862000574B1A80574B00221A80574B00221A7062
:10863000564B00221A60564B1A8A564B1A80544BDE
:108640001A8B554B1A80524B5A8B544B1A80544BF1
:10865000544A1A604B4B1B887B624C4B1B683B6235
:108660004B4B1B8BFB614A4B5B8BBB614E4B1B78AF
:10867000012B22D8FA69BB699A4208D9FB699AB2E0
:10868000434B1A83FB699AB2414B5A831DE0FA6946
:10869000BB699A4208D2BB699AB23D4B1A83BB6947
:1086A0009AB23B4B5A8310E0FB699AB2384B1A835B
:1086B000BB699AB2364B5A8307E0FB699AB2344BD6
:1086C0001A83BB699AB2324B5A83374B1978304BB5
:1086D0001B8B1C002E4B5B8B1D000C23F8183B6A78
:1086E0007A6A0195009400F0C3F90C23FB181B680B
:1086F000FB620C23FB185B68BB622C4B1B88082BAE
:1087000003D1BB6ADB00BB6205E0FB6A5B00FB6276
:10871000BB6A1B01BB62264B1B881A00BB6A5A430B
:10872000FB6AD3187B611A4B5A687B69D218214BBC
:108730001A603A687B681100180000F03DF83A684A
:108740007B681100180000F0E5F8C046BD460CB08B
:10875000B0BDC0467421012078210120E420012011
:108760007C210120B0210120C2210120C42101204F
:1087700094210120C821012000090740082201207E
:1087800020220120CE210120CC210120D021012056
:108790000C210120F0210120FC210120FE210120DB
:1087A00000220120000A07401A2201201E22012077
:1087B00014220120E0210120B0B58AB006AF786014
:1087C0003960454B1B88082B02D0102B05D00AE0DE
:1087D0000E23FB1800221A800BE00E23FB188022C8
:1087E00052011A8005E00E23FB18802252011A80E4
:1087F000C0463A4B1B88012B1CD1394B1B88012BDF
:1088000018D10E23FB181988364B1B881D00364BD8
:108810001B688022D400802210023A6804920393DD
:1088200002957B6801931023009308232200FDF733
:108830000DFD4DE00E23FB1819882A4B1B881D00E7
:10884000294B1B688022D400802210023A680592CE
:10885000264A0492039302957B68019310230093A8
:1088600008232200FDF788FC1C4B1B88012B18D124
:108870001F4B1B685A1C1E4B1A601E4B1B681E4A5E
:1088800012889A18184B1A60174B1A68194B1A60FD
:108890001A4B1B4A1A601B4B1B685A1C194B1A6057
:1088A00016E0144B1B68184A12889A180E4B1A606F
:1088B000124B134A1A600F4B1B68134A12889A18FE
:1088C000124B1A60124B1B8801339AB2104B1A805C
:1088D000C046BD4604B0B0BD1E220120C221012009
:1088E000C42101200822012094210120459200206A
:1088F000782101207C210120B4210120C821012000
:1089000000090740D0210120B02101209821012039
:10891000CE210120B0B590B006AF78603960494BE8
:108920001B88082B02D0102B05D00AE02623FB1849
:1089300000221A800BE02623FB18802252011A80A5
:1089400005E02623FB18802252011A80C0463E4BC8
:108950001B88012B1ED13D4B1B88012B1AD12623CE
:10896000FB1819883A4B1B881D003A4B1B68802264
:108970001401802210023A680592374A0492039348
:1089800002957B6801930023009304232200FDF7E6
