:10000000206301205D3A0100553600205F36002054
:1000100000000000000000000000000000000000E0
:100020000000000000000000000000007736002003
:1000300000000000000000008B36002095360020F4
:100040009D700020B3700020C9700020DF70002078
:10005000F57000200B710020217100203771002005
:100060004D71002063710020797100208F71002094
:10007000A5710020BB710020D1710020E771002024
:10008000FD71002013720020297200203F720020B1
:10009000557200206B720020817200209772002040
:1000A000AD720020C3720020D9720020EF720020D0
:1000B000057300201B73002031730020477300205C
:1000C000FFFFFFFFFFFFFFFFFFFFFFFFFFFFFFFF40
:1000D000FFFFFFFFFFFFFFFFFFFFFFFFFFFFFFFF30
:1000E000FFFFFFFFFFFFFFFFFFFFFFFFFFFFFFFF20
:1000F000FFFFFFFFFFFFFFFFFFFFFFFFFFFFFFFF10
:10040000FFFFFFFFFFBFFFFFFFFFFFFFFFFFFFFF3C
:10041000FFFFFFFFFFFFFFFFFFFFFFFFFFFFFFFFEC
:10042000FFFFFFFFFFFFFFFFFFFFFFFFFFFFFFFFDC
:10043000FFFFFFFFFFFFFFFFFFFFFFFFFFFFFFFFCC
:10044000FFFFFFFFFFFFFFFFFFFFFFFFFFFFFFFFBC
:1030000080B500AFC046BD4680BDFFFFB0B588B0FB
:1030100000AF05000C0010001900BB1D2A1C1A800F
:103020003B1D221C1A80BB1C021C1A807B1C0A1C24
:103030001A70BB1D1B88012B00D0B1E03B1D1B8803
:103040000D2B00D0ACE0B54AD37803218B43D3706D
:103050001723FB1807221A701723FB181B787F2BE6
:103060000FD8AF491723FB181B781A001F231340F2
:1030700001229A40130080228B50BFF34F8FBFF381
:103080006F8F15F059FBA74B1A000121072015F08F
:10309000A3FB072015F090FA1E23FB1807221A70D5
:1030A0000123BB611E23FB181B787F2B2CD89C4C63
:1030B0001E23FB181B785BB29B0899491E22BA1885
:1030C000127852B29208C032920052581E217918DA
:1030D0000978080003210140C900FF208840010051
:1030E000C9431140BA699201FF2010401E22BA184C
:1030F0001278150003222A40D200904002000A43B1
:10310000C0339B001A5135E0874C1E23FB181B78F7
:103110001A000F231340083B9908834A1E23FB180B
:103120001B7818000F230340083B9B0806339B00C5
:10313000D31804331B681E22BA1812781000032219
:103140000240D200FF2090400200D2431A40BB69E7
:103150009B01FF2018401E23FB181B781D00032332
:103160002B40DB00984003001A438B1D9B00E318A3
:1031700004331A601F23FB1807221A701F23FB1841
:103180001B787F2B00D9C4E0654B1F22BA18127838
:1031900011001F220A40012191400A001A60B8E084
:1031A000BB1D1B88022B00D0B4E03B1D1B88042BE9
:1031B00000D0AFE0594AD37903218B43191C012376
:1031C0000B43D3710F23FB1817221A700F23FB1820
:1031D0001B787F2B0FD852490F23FB181B781A003E
:1031E0001F23134001229A40130080228B50BFF30B
:1031F0004F8FBFF36F8F15F067F94C4B1A001321F7
:10320000172015F0E9FA172015F0D6F91523FB1849
:1032100017221A7001233B611523FB181B787F2BA3
:103220002CD83F4C1523FB181B785BB29B083C49FC
:103230001522BA18127852B29208C032920052582F
:10324000152179180978080003210140C900FF20E1
:1032500088400100C94311403A699201FF201040A3
:103260001522BA181278150003222A40D200904085
:1032700002000A43C0339B001A5135E02A4C152343
:10328000FB181B781A000F231340083B9908264AA5
:103290001523FB181B7818000F230340083B9B08DD
:1032A00006339B00D31804331B681522BA18127812
:1032B000100003220240D200FF2090400200D243BF
:1032C0001A403B699B01FF2018401523FB181B780F
:1032D0001D0003232B40DB00984003001A438B1D85
:1032E0009B00E31804331A601623FB1817221A7088
:1032F0001623FB181B787F2B0CD8094B1622BA1803
:10330000127811001F220A40012191400A001A6020
:1033100000E0C046C046BD4608B0B0BD00600040F9
:1033200000E100E0D536002000ED00E0FD36002091
:1033300090B585B000AF040008001100BB1D221C31
:103340001A803B1D021C1A80FB1C0A1C1A70BB1D34
:103350001B889B0119003B1D1B880F2213409B00FB
:10336000CB18294A94466344BB600023FB600320CA
:1033700015F05AF9BB68FA681A60032015F044F991
:10338000FB1C1B78012B07D0FB1C1B78022B03D0E6
:10339000FB1C1B78032B09D1FB1C1B781AB23B1DAD
:1033A0001988BB1D18880123FFF730FE032015F094
:1033B0003BF9BB681B68FB60FB1C1B78012B05D12C
:1033C000FB68A022D2011343FB6012E0FB1C1B78B8
:1033D000022B05D1FB68C022D2011343FB6008E039
:1033E000FB1C1B78032B04D1FB68E022D2011343A2
:1033F000FB60BB68FA681A60032015F005F9C04647
:10340000BD4605B090BDC0460008044090B585B0EB
:1034100000AF040008001100BB1D221C1A803B1DD8
:10342000021C1A80FB1C0A1C1A70BB1D1B889B0106
:1034300019003B1D1B880F2213409B00CB180B4A21
:1034400094466344FB60032015F0EEF8FB1C1B78E8
:1034500001221340042213431A00FB681A60032060
:1034600015F0D2F8C046BD4605B090BD0008044036
:1034700080B500AF002202210620FFF7C7FF00221F
:1034800004210020FFF7C2FF002205210020FFF7E2
:10349000BDFF01220B210120FFF7B8FF01220C2103
:1034A0000120FFF7B3FF012204210220FFF740FFB4
:1034B00002220D210120FFF73BFF002208210120FD
:1034C000FFF736FF01220F210020FFF79FFF0022A8
:1034D00002210320FFF79AFF002209210120FFF7B4
:1034E00095FF012209210220FFF790FFC046BD464B
:1034F00080BDFFFF80B500AF032015F095F8304B7D
:103500009A69304B1A602E4B1A6D2F4B1A602C4B58
:103510005A6D2E4B1A602A4B9A6D2D4B1A60284B10
:10352000DA6D2C4B1A60264B1A6E2B4B1A60244B0B
:103530005A6E2A4B1A60224BDA6E294B1A60204BC6
:103540001A6F284B1A601E4A8823D258264B1A60DD
:103550001B4A8C23D258254B1A60194A9023D25803
:10356000234B1A60164B00229A61154B00221A65F4
:10357000134B00225A65124B00229A65104B002211
:10358000DA650F4B00221A660D4B00225A660C4B6F
:103590000022DA660A4B00221A67094A88230021B2
:1035A000D150074A8C230021D150054A9023002195
:1035B000D150032015F028F8C046BD4680BDC04656
:1035C00000080440141E0120181E01201C1E0120AA
:1035D000201E0120241E0120281E01202C1E012057
:1035E000301E0120341E0120381E01203C1E012007
:1035F000401E012080B500AF032015F015F81C4ACD
:103600001C4B1B6893611A4A1B4B1B681365184AB5
:103610001A4B1B685365164A194B1B689365144A6D
:10362000184B1B68D365124A174B1B681366104A68
:10363000164B1B6853660E4A154B1B68D3660C4A23
:10364000144B1B6813670A49134B1B6888228B5065
:103650000749124B1B688C228B500549104B1B6885
:1036600090228B50032014F0CFFFC046BD4680BD92
:1036700000080440141E0120181E01201C1E0120F9
:10368000201E0120241E0120281E01202C1E0120A6
:10369000301E0120341E0120381E01203C1E012056
:1036A000401E012080B582B000AF274B00221A6077
:1036B000192015F001F8254A137A04210B431372DF
:1036C000C046224B1B7A9B07DB0FDBB2012BF8D0E5
:1036D0001E4A537A07218B4353721C4A537A08219E
:1036E0008B435372194A537A70218B43191C602300
:1036F0000B435372154A937A07218B43191C0523F8
:103700000B439372114B20221A80114B1A00062191
:10371000042015F061F8042014F04EFFFB1D042274
:103720001A70FB1D1B787F2B0AD80A4BFA1D1278E2
:1037300011001F220A40012191400A001A60C04670
:10374000C046BD4602B080BD6C2401200041084047
:103750006939002000E100E080B500AF204B002275
:103760001A60212014F0A8FF1E4A137B04210B438A
:103770001373C0461B4B1B7B9B07DB0FDBB2012B7C
:10378000F8D0184A537B07218B435373154A537B58
:1037900008218B435373134A537B70218B43191CAD
:1037A00060230B4353730F4A937B07218B43191CF0
:1037B00005230B4393730B4B012252421A60094BB2
:1037C000012252421A60084B1A001521182015F0E8
:1037D00003F8182014F0F0FEC046BD4680BDC04678
:1037E0006C24012000420840513A002080B582B08C
:1037F00000AF1E2014F060FF334928228B5C0220AA
:1038000003438B54304928228B5C7F2003408B5428
:1038100000237B6003E0C0467B6801337B607B68EC
:10382000052BF8DD284A2423D35CDB07DB0F264970
:1038300024228B5C012083438B5400E0C046224A43
:103840002423D35CDB07DB0FDBB2002BF6D11E4A4F
:103850002423D35C9B07DB0F1B4924228B5C0220B3
:1038600003438B5400E0C046174A2423D35C9B07D4
:10387000DB0FDBB2002BF6D103E0134A2223002139
:10388000D154114A2223D35CDBB2002BF5D10020A6
:1038900014F04AFE06E00C4924228B5C8020404252
:1038A00003438B54084A2423D35C1B06DB0FDBB293
:1038B000012BF0D114F010FE044B01221A70C04607
:1038C000BD4602B080BDC04600400440901E0120AD
:1038D00080B582B000AF0200FB1D1A70FB1D1B7883
:1038E0001B09DBB21A0013009B009B185B00190038
:1038F000FB1D1B780F221340CB181800BD4602B0E9
:1039000080BD90B583B000AF0200FB1D1A70FB1D97
:103910001B780A21180014F09FFE0300DBB21B0184
:103920005BB20F2293435CB2FB1D1B780A21180087
:1039300014F0F2FD0B00DBB25BB223435BB2DBB2EF
:103940001800BD4603B090BD80B500AFC046BD466F
:1039500080BDFFFF80B500AF034B1B685A1C024BB4
:103960001A60C046BD4680BD981E012080B588B053
:1039700000AF78600A00FB1C1A70EFF310837B61C4
:103980007B69FB610123BB61BB6983F310887B68A2
:103990005B881AB20E23FB181A807B685B680E22C4
:1039A000BA18128812B29B18FA1C12781A700E23D9
:1039B000FB181B881BB29BB201339BB21AB20E23B9
:1039C000FB181A800E23FB181B881BB21A007B6899
:1039D0001B899A4203DB0E23FB1800221A807B68A6
:1039E0005B680E22BA18128812B29B1800221A7055
:1039F0000E23FB181B881BB29AB27B685A80FB69A6
:103A00003B613B6983F31088C046BD4608B080BD6A
:103A100080B588B000AF7860EFF310837B617B697D
:103A2000FB610123BB61BB6983F310887B681B8842
:103A30001AB20C23FB181A807B685B680C22BA1838
:103A4000128812B29B1800229A560F23FB181A7084
:103A50000C23FB181B881BB29BB201339BB21AB21A
:103A60000C23FB181A800C23FB181B881BB21A00AE
:103A70007B681B899A4203DB0C23FB1800221A8007
:103A80000C23FB181B881BB29AB27B681A80FB6957
:103A90003B613B6983F310880F23FB181B785BB2F3
:103AA0001800BD4608B080BD80B588B000AF786012
:103AB000EFF310833B613B69BB6101237B617B6951
:103AC00083F310887B685A887B681B889A4204D1EC
:103AD0001F23FB1801221A7003E01F23FB1800228A
:103AE0001A70BB69FB60FB6883F310881F23FB1807
:103AF0001B785BB21800BD4608B080BD80B588B0A9
:103B000000AF7860EFF310833B613B69BB61012339
:103B10007B617B6983F310887B685B881AB20A2318
:103B2000FB181A800A23FB181B881BB29BB20133B7
:103B30009BB21AB20A23FB181A800A23FB181B88AF
:103B40001BB21A007B681B899A4203DB0A23FB180D
:103B500000221A800A23FB181B881BB21A007B68FC
:103B60001B889A4204D11F23FB1801221A7003E01C
:103B70001F23FB1800221A70BB69FB60FB6883F3EC
:103B800010881F23FB181B785BB21800BD4608B0D5
:103B900080BD90B587B002AF786039600823FB180C
:103BA000180003231A00002110F0CEFE0F23FB188B
:103BB00003221A700C23FB1802221A700C23FB1824
:103BC00004225A700F23FC180823FA180C23F91842
:103BD0007868032300931300022200F08BFC03009B
:103BE00023700F23FB181B78002B1CD10823FB1814
:103BF0001B785B08DBB25B42DBB25AB23B681A70DF
:103C00000823FB185B785BB202339B105AB23B6807
:103C10005A700823FB189B785B08DBB25B42DBB26F
:103C20005AB23B689A700F23FB181B781800BD46E8
:103C300005B090BD80B584B000AF786039603B6856
:103C4000180000F054F90300FB60FA687B6811006B
:103C5000180000F005F803001800BD4604B080BD50
:103C600080B586B002AF786039600823FB18022265
:103C70001A700823FB180A225A703B681B0CDAB230
:103C80000823FB189A703B681B0ADAB20823FB185A
:103C9000DA703B68DAB20823FB181A710823F918A6
:103CA0007868002300930023052200F06DFC0300D8
:103CB0001800BD4604B080BD80B586B002AF786004
:103CC00039600823FB1802221A700823FB180B2204
:103CD0005A703B681B0EDAB20823FB189A703B68D7
:103CE0001B0CDAB20823FB18DA703B681B0ADAB245
:103CF0000823FB181A713B68DAB20823FB185A71C3
:103D00000823F9187868002300930023062200F0A6
:103D10003BFC03001800BD4604B080BD80B586B0F2
:103D200002AF78600A00FB1C1A700C23FB180222F9
:103D30001A700C23FB180E225A700C23FB18FA1C65
:103D400012789A700C23F9187868002300930023E6
:103D5000032200F019FC03001800BD4604B080BD2A
:103D600080B586B002AF786039600823FB18022264
:103D70001A700823FB180F225A703B681A78082320
:103D8000FB189A703B685A780823FB18DA703B6876
:103D90009A780823FB181A713B68DA780823FB1815
:103DA0005A710823F918786800230093002306222B
:103DB00000F0EAFB03001800BD4604B080BD80B5EA
:103DC00086B002AF786039600823FB1802221A70AF
:103DD0000823FB1810225A703B681B881B0A9BB2F1
:103DE000DAB20823FB189A703B681B88DAB2082302
:103DF000FB18DA703B689A780823FB181A713B6845
:103E0000DA780823FB185A713B681A790823FB18E3
:103E10009A713B685A790823FB18DA710823F9185C
:103E20007868002300930023082200F0ADFB030014
:103E30001800BD4604B080BD80B586B002AF786082
:103E400008001100FB1C021C1A70BB1C0A1C1A7013
:103E50000C23FB1802221A700C23FB1811225A7033
:103E6000FB1C1A780C23FB189A700C23FB18BA1C45
:103E70001278DA700C23F918786800230093002375
:103E8000042200F081FB03001800BD4604B080BD91
:103E900080B586B002AF786039600823FB18022233
:103EA0001A700823FB1815225A703B681A780823E9
:103EB000FB189A703B685A780823FB18DA703B6845
:103EC0009A780823FB181A713B68DA780823FB18E4
:103ED0005A710823F91878680023009300230622FA
:103EE00000F052FB03001800BD4604B080BD80B551
:103EF00082B000AF78607B68DA03FA239900100083
:103F000014F0AAFB03001800BD4602B080BD80B5C6
:103F100088B002AFF860B960FB1D1A701423FB185B
:103F200001221A701423FB1809225A70FB1D1B78FA
:103F30009BB2BA6814217918F86800931300022222
:103F400000F022FB03001800BD4606B080BD90B50E
:103F500089B002AF786039601023FB181800052380
:103F60001A00002110F0F0FC0C23FB1801221A703B
:103F70000C23FB1800225A701723FC181023FA1880
:103F80000C23F9187868052300931300022200F02F
:103F9000B1FA030023701723FB181B78002B13D1F1
:103FA0001023FB185B781A061023FB189B781B0460
:103FB000D2181023FB18DB781B02D3181022BA1872
:103FC00012799A183B681A601723FB181B7818009F
:103FD000BD4607B090BD90B587B002AF786039603C
:103FE0000823FB1800221A600F23FB1803221A7003
:103FF0000C23FB1801221A700C23FB1801225A70A3
:104000000F23FC180823FA180C23F91878680423E6
:1040100000931300022200F06DFA030023700F23B7
:10402000FB181B78002B17D10823FB181A783B6864
:104030001A700823FB185A783B685A700823FB183B
:104040009B789BB21B029AB20823FB18DB789BB2C9
:10405000D3189AB23B685A800F23FB181B781800BC
:10406000BD4605B090BD90B587B002AF78603960AD
:104070000823FB1800221A600F23FB1803221A7072
:104080000C23FB1801221A700C23FB180D225A7006
:104090000F23FC180823FA180C23F9187868022358
:1040A00000931300022200F025FA030023700F236F
:1040B000FB181B78002B0DD10823FB181B789BB233
:1040C0001B029AB20823FB185B789BB2D3189AB2F2
:1040D0003B681A800F23FB181B781800BD4605B0FB
:1040E00090BD80B586B002AF78600C23FB1801222A
:1040F0001A700C23FB180E225A700C23F9187868DA
:10410000002300930023022200F03EFA030018006F
:10411000BD4604B080BD80B586B002AF78600A00AD
:10412000FB1C1A700C23FB1801221A700C23FB18BD
:104130000F225A700C23FB18FA1C12789A700C2369
:10414000F9187868002300930023032200F01CFA7A
:1041500003001800BD4604B080BD80B586B002AF34
:1041600078600A00FB1C1A700C23FB1801221A70DD
:104170000C23FB1810225A700C23FB18FA1C12781F
:104180009A700C23F9187868002300930023032207
:1041900000F0FAF903001800BD4604B080BD80B5F8
:1041A00088B002AF786039600C23FB1801221A70C6
:1041B0000C23FB1812225A703B681A780C23FB1848
:1041C0009A703B685A780C23FB18DA703B689A782F
:1041D0000C23FB181A713B68DA780C23FB185A7110
:1041E0003B681A790C23FB189A713B685A790C23A7
:1041F000FB18DA713B689A790C23FB181A723B683A
:10420000DA790C23FB185A720C23F918786800230A
:10421000009300230A2200F0B7F903001800BD46FE
:1042200006B080BD80B58AB002AFF860B9607A6030
:104230001423FB1801221A701423FB1813225A703E
:10424000BB681B0EDAB21423FB189A70BB681B0CF8
:10425000DAB21423FB18DA70BB681B0ADAB2142333
:10426000FB181A71BB68DAB21423FB185A717B6809
:104270001B0EDAB21423FB189A717B681B0CDAB29E
:104280001423FB18DA717B681B0ADAB21423FB18BB
:104290001A727B68DAB21423FB185A721423F918C5
:1042A000F8680023009300230A2200F06DF9030050
:1042B0001800BD4608B080BD80B586B002AF7860FA
:1042C00039600823FB1801221A700823FB181422F6
:1042D0005A703B681B0EDAB20823FB189A703B68D1
:1042E0001B0CDAB20823FB18DA703B681B0ADAB23F
:1042F0000823FB181A713B68DAB20823FB185A71BD
:104300000823F9187868002300930023062200F0A0
:104310003BF903001800BD4604B080BD80B586B0EF
:1043200002AF786008001100FB1C021C1A70BB1C55
:104330000A1C1A70BB1C1B789B005AB2FB1C1B7812
:104340005BB213435AB20F23FB181A700C23FB18ED
:1043500001221A700C23FB1816225A700C23FB182A
:104360000F22BA1812789A700C23F9187868002373
:1043700000930023032200F007F903001800BD4654
:1043800004B080BD80B588B002AFF8607A600B23BE
:10439000FB180A1C1A701023FB1801221A70102334
:1043A000FB1817225A701023FB180B22BA18127828
:1043B0009A707B681B0CDAB21023FB18DA707B68EA
:1043C0001B0ADAB21023FB181A717B68DAB21023C9
:1043D000FB185A711023F918F86800230093002382
:1043E000062200F0D1F803001800BD4606B080BDDB
:1043F00080B588B002AFF8600823FB1819807A6096
:104400001023FB1801221A701023FB181B225A706C
:104410000823FB185B78DB18DBB20822BA18127885
:104420009B18DAB21023FB189A707B681B0EDAB265
:104430001023FB18DA707B681B0CDAB21023FB1810
:104440001A717B681B0ADAB21023FB185A717B6859
:10445000DAB21023FB189A711023F918F8680023B8
:1044600000930023072200F08FF803001800BD46D8
:1044700006B080BD80B584B000AF78607B68FB601B
:10448000FB6806229A5A00231204120C1B0C1B0410
:1044900013430021180014F02FF9012014F024F820
:1044A000FB6806229A5A00231204120C1B0C1B04F0
:1044B00013430121180014F01FF900231800BD4612
:1044C00004B080BD80B584B000AF78607B68FB60CD
:1044D000FB680021586814F00FF9012014F004F86B
:1044E000FB680121586814F007F900231800BD4645
:1044F00004B080BD80B586B000AFF860B9603B60A5
:10450000BB1D1A80FB687B611323FB1800221A7005
:104510007B690021986814F077F97B69002158685D
:1045200014F0EAF87B691868BB1D1A88BB6819008B
:1045300013F0EAFF7B690121586814F0DDF87B690C
:104540000021986814F060F97B690021586814F024
:10455000D3F87B691B681322B9180122180013F0E5
:10456000D3FF7B691B682022BA18128839681800AB
:1045700013F0E2FF7B690121586814F0BDF80023B5
:104580001800BD4606B080BD80B586B000AFF860AB
:10459000B9603B60BB1D1A80FB687B617B690021B1
:1045A000986814F031F97B690021586814F0A4F878
:1045B0007B691868BB1D1A88BB68190013F0A4FF3B
:1045C0007B691B682022BA1812883968180013F01A
:1045D0009BFF7B690121586814F08EF800231800B6
:1045E000BD4606B080BDFFFF80B500AF074B1B780E
:1045F000002B08D1054B01221A7000F009F800F0D9
:104600001FF800F035F8C046BD4680BDE41E01200D
:1046100080B582B000AF00237B6007E0074B7A686B
:1046200092000021D1507B6801337B607B681F2B97
:10463000F4D9C046BD4602B080BDC046E81E012088
:1046400080B582B000AF00237B6007E0074A7B683B
:10465000D31800221A707B6801337B607B682F2B94
:10466000F4D9C046BD4602B080BDC046B41E01208C
:1046700080B582B000AF00237B6007E0074B7A680B
:1046800052000021D1527B6801337B607B68042B90
:10469000F4D9C046BD4602B080BDC046A41E01206C
:1046A00080B586B000AFF860B9607A60FB687B6166
:1046B000BB683B6107E07B695A1C7A613A69511C0F
:1046C000396112781A707B685A1E7A60002BF2D119
:1046D000FB681800BD4606B080BDFFFF80B584B002
:1046E00000AF1E4BFB601E4BBB601E4B7B607A68AD
:1046F000F968BB681800FFF7D3FF1B4BFB601B4B2F
:10470000BB601B4A194BD31A7B607A68F968BB6897
:104710001800FFF7C5FF174BFB60174BBB60174A2C
:10472000154BD31A7B607A68F968BB681800FFF7ED
:10473000B7FF134BFB60134BBB60134A114BD31AEB
:104740007B607A68F968BB681800FFF7A9FF0F4B18
:10475000034A9A60C046BD4604B080BD0000000018
:1047600000040020C0000000E5930100E0090020E3
:1047700078D900209D66020098DC002090E200209D
:10478000956C020090E20020141E012000ED00E074
:1047900080B58EB000AFF860B9607A603B603723B7
:1047A000FB1801221A707A681423FB18DA611423AB
:1047B000FB183A689A601423FB183A6CDA601423E9
:1047C000FB18FA685A611423FB18BA681A6114239B
:1047D000FB1801221A761423FB1801225A760E4B7D
:1047E0001B681B69002107209847031E01D0052381
:1047F0000EE0094B1B681B691422BA1811000A202D
:104800009847031E01D0052302E03723FB181B78CD
:104810001800BD460EB080BDD41F012080B586B003
:1048200000AFF860B9607A6000237B610CE0BB6880
:10483000FA6812781A70BB680133BB60FB680133F9
:10484000FB607B6901337B617A697B689A42EED3B6
:10485000C046BD4606B080BD80B500AF0A4B1B7890
:10486000DBB2002B0CD1084B01221A70074B00223F
:104870001A70074B00221A70064B00221A70C046AD
:10488000C046BD4680BDC046D81F0120D91F0120AB
:10489000DA1F0120DB1F012080B582B000AF0200CB
:1048A000FB1D1A70FB1D1B78012B02D901235B42F3
:1048B0002CE0FB1D1B78012B09D1164A9023DB004D
:1048C000D35CDBB2002B02D001235B421EE0FB1D58
:1048D0001B78002B09D10F4A9223DB00D35CDBB29B
:1048E000002B02D001235B4210E0012013F09CFE5C
:1048F0000849FB1D1B78802252421343DAB29C23E5
:10490000DB00CA54012013F07FFE00231800BD46CF
:1049100002B080BD00E0014080B500AF034A044B07
:10492000D35CDBB21800BD4680BDC04600E001404C
:10493000E104000080B500AF034A136801210B4376
:104940001360C046BD4680BD0008074080B500AF7B
:10495000034A136801218B431360C046BD4680BDE6
:104960000008074080B58CB000AFF860B9607A608D
:104970003B60FB689AB2BB689BB213439AB27B68F8
:104980009BB213439AB23B689BB213439AB2BB6B80
:104990009BB213439AB21023FB181A801023FB1802
:1049A0007A6C5A601023FB18214A9A601023FB1876
:1049B0000122DA603A6C1023FB185A611023FB18AD
:1049C000FA6B1A611023FB1800221A761023FB18C9
:1049D00000225A76174B1B685B689847031E01D06C
:1049E000FB6C9847134B1B68DB681022BA18110048
:1049F000A8209847031E01D0FB6C98470D4B1B68FD
:104A00005B69BA6C110001209847031E01D0FB6C52
:104A10009847084B1B681B69002100209847031E1C
:104A200001D0FB6C9847C046BD460CB080BDC04667
:104A3000000907404421012080B58CB000AFF86028
:104A4000B9607A603B60FB689AB2BB689BB2134363
:104A50009AB27B689BB213439AB23B689BB21343F2
:104A60009AB2BB6B9BB213439AB21023FB181A8005
:104A70001023FB187A6C5A601023FB181F4A9A60A7
:104A80001023FB180122DA603A6C1023FB185A61DC
:104A90001023FB18FA6B1A611023FB1800221A76F8
:104AA0001023FB1800225A76154B1B685B68984749
:104AB000031E01D0BB6C9847114B1B68DB681022AA
:104AC000BA181100A8209847031E01D0BB6C984764
:104AD0000B4B1B689B699847031E01D0BB6C984722
:104AE000074B1B681B69002100209847031E01D05B
:104AF000BB6C9847C046BD460CB080BD000907405E
:104B00004421012080B58CB000AFF860B9607A60B4
:104B10003B60FB689AB2BB689BB213439AB27B6856
:104B20009BB213439AB23B689BB213439AB2BB6BDE
:104B30009BB213439AB21023FB181A801023FB1860
:104B4000234A5A601023FB187A6C9A601023FB18D2
:104B50000122DA603A6C1023FB185A611023FB180B
:104B6000FA6B1A611023FB1800221A761023FB1827
:104B700000225A76174B1B685B689847031E01D0CA
:104B8000FB6C9847134B1B68DB681022BA181100A6
:104B9000A9209847031E01D0FB6C98470D4B1B685A
:104BA0005B69BA6C110001209847031E01D0FB6CB1
:104BB0009847084B1B681B69002100209847031E7B
:104BC00001D0FB6C9847C046BD460CB080BDC046C6
:104BD000000A07404821012080B584B000AF78600A
:104BE0005A4B1B78002B00D081E0594B1B78012BCE
:104BF0000ED1584B1B881800564B1B8819007B6838
:104C00001A0000F0B5F800F00BFEFFF793FE99E0F4
:104C10000C23FB1820221A700C23FB181B787F2B07
:104C20000BD84D490C23FB181B781A001F23134087
:104C300001229A40C0235B00CA500D23FB1820229A
:104C40001A700D23FB181B787F2B0BD842490D23BC
:104C5000FB181B781A001F23134001229A40C0231F
:104C60005B00CA50202013F0A7FC202013F0A4FC06
:104C70000E23FB1820221A700E23FB181B787F2BA3
:104C80000FD835490E23FB181B781A001F23134039
:104C900001229A40130080228B50BFF34F8FBFF345
:104CA0006F8F0F23FB1820221A700F23FB181B781D
:104CB0007F2B0FD828490F23FB181B781A001F23BE
:104CC000134001229A40130080228B50BFF34F8F74
:104CD000BFF36F8F00220021202013F07DFD002202
:104CE0000021202013F078FD7B6898472AE01B4BB9
:104CF0001B88032B0ED11A4B1A001E21202013F003
:104D00006BFD184B1A001E21202013F065FD00F0EA
:104D10005BFC13E0114B1B88042B0ED1124B1A00C5
:104D20001E21202013F058FD104B1A001E212020B8
:104D300013F052FD00F0F0FA00E0C04600F070FD04
:104D4000FFF7F8FDC046BD4604B080BD202001201D
:104D5000DC1F01201621012000E100E014210120C8
:104D6000998E0020198F0020998F0020FD9000203F
:104D700080B584B000AFF860B9607A60694B1B7889
:104D8000012B03D1684B01221A8002E0664B0022FE
:104D90001A80664B00221A60654B00221A6010E0F0
:104DA000634B1A68624B1B6862499B00CB18043343
:104DB0001968614B9200D1505D4B1B685A1C5C4BCB
:104DC0001A60584B1B781A00594B1B689A42E7D857
:104DD000584B9A8B594B1A80564B9A8C584B1A80C9
:104DE000544BDA8C574B1A80524B5A68564B1A6008
:104DF000564B574A1A60574B1A88574B1A804C4BE0
:104E000000221A6010E04A4B1A68494B1B68494956
:104E10009B00CB1804331968504B9200D150444B7F
:104E20001B685A1C424B1A603E4B1B781A00404BC1
:104E30001B689A42E7D83E4B00221A60484B1B7809
:104E4000012B03D1474B01221A8002E0454B00227F
:104E50001A80454B00221A70444B00221A60444BC2
:104E600000221A6010E0424B1A68414B1B6841490E
:104E70009B00CB18043319683F4B9200D1503C4B38
:104E80001B685A1C3A4B1A60354B1B781A00384B7A
:104E90001B689A42E7D8374B1A8A384B1A80354B31
:104EA0001A8B374B1A80334B5A8B364B1A80314B47
:104EB0005A68354B1A60354B354A1A60354B1A889B
:104EC000354B1A802A4B00221A6010E0284B1A68D2
:104ED000274B1B6827499B00CB18043319682F4BBD
:104EE0009200D150224B1B685A1C214B1A601C4B5C
:104EF0001B781A001E4B1B689A42E7D81C4B0022F5
:104F00001A607A68FB681100180000F049F87A68A6
:104F1000BB681100180000F01FF9C046BD4604B080
:104F200080BDC0463C2C01206C2001207020012057
:104F300064200120DC1F012074200120A820012012
:104F4000BA200120BC2001208C200120C02001209B
:104F50000009074000210120182101209020012094
:104F6000E82B0120C6200120C4200120C8200120F8
:104F70006820012004200120CC200120E82001200D
:104F8000F4200120F6200120D8200120F820012063
:104F9000000A07400C2101201A210120DC200120F9
:104FA000B0B58AB006AF786039605A4B1B88082BC1
:104FB00002D0102B05D00AE00E23FB1800221A8025
:104FC0000BE00E23FB18802252011A8005E00E230D
:104FD000FB18802252011A80C0464F4B1B78012BD0
:104FE00064D14E4B1B88012B1CD14D4B1B88012BD0
:104FF00018D10E23FB1819884A4B1B881D004A4BF9
:105000001B688022D400802210023A680492039325
:1050100002957B6801931023009308232200FFF779
:105020000BFD73E00E23FB1819883E4B1B881D00F7
:105030003D4B1B688022D400802210023A68059202
:105040003A4A0492039302957B68019310230093DC
:1050500008232200FFF786FC304B1B88012B13D15D
:10506000334B1B685A1C324B1A60324B1B68324A56
:1050700012889A182C4B1A602B4B1A682D4B1A6009
:105080002E4B2F4A1A6041E02A4B1B682D4A12888A
:105090009A18254B1A60294B294A1A60254B1B6820
:1050A000284A12889A18284B1A602FE00E23FB1802
:1050B0001988264B1B881D001B4B1B688022D400BF
:1050C000802210023A680592184A049203930295CE
:1050D0007B6801931023009308232200FFF742FC12
:1050E0001B4B1B685A1C1A4B1A60194B1A680D4B44
:1050F0005200D25A154B1A80154B1A680D4B92006C
:10510000D258094B1A600D4B124A1A60C046BD4670
:1051100004B0B0BD162101203C2C0120BA20012092
:10512000BC200120002101208C2001203D92002084
:105130007020012074200120AC200120C02001201B
:1051400000090740A82001209020012018210120FB
:105150006420012020090740B0B58AB006AF78600E
:1051600039605B4B1B88082B02D0102B05D00AE05E
:105170000E23FB1800221A800BE00E23FB1880225E
:1051800052011A8005E00E23FB18802252011A807A
:10519000C046504B1B78012B66D14F4B1B88012B0F
:1051A0001ED14E4B1B88012B1AD10E23FB181988D8
:1051B0004B4B1B881D004B4B1B6880221401802227
:1051C00010023A680592484A0492039302957B685C
:1051D00001930023009304232200FFF793FC73E064
:1051E0000E23FB1819883E4B1B881D003D4B1B6886
:1051F00080221401802210023A6805923B4A0492F0
:10520000039302957B6801930023009304232200FB
:10521000FFF778FC304B1B88012B13D1344B1B68F4
:105220005A1C334B1A60334B1B68334A12889A1846
:105230002C4B1A602B4B1A682E4B1A602F4B304A9E
:105240001A6041E02B4B1B682E4A12889A18254B96
:105250001A602A4B2A4A1A60264B1B68294A128870
:105260009A18294B1A602FE00E23FB181988274B38
:105270001B881D001B4B1B6880221401802210021A
:105280003A680592194A0492039302957B68019348
:105290000023009304232200FFF734FC1C4B1B68FF
:1052A0005A1C1B4B1A601A4B1A680D4B5200D25AEB
:1052B000164B1A80164B1A680E4B9200D258094BA7
:1052C0001A600E4B134A1A60C046BD4604B0B0BD0A
:1052D00016210120E82B0120F4200120F6200120D6
:1052E0000C210120D8200120F59200209992002065
:1052F000C8200120CC200120EC200120F820012032
:10530000000A0740E8200120DC2001201A210120AA
:1053100068200120200A074080B582B000AF894B89
:1053200000221A60884B00221A60884B00221A80E3
:10533000874B00221A60FB1D00221A700AE0FB1D39
:105340001A78844B92000021D150FB1D1A78FB1D66
:1053500001321A70804B1B78FA1D12789A42EED3F4
:105360007E4B9A8B7E4B1A807C4B1B6A9AB27D4B8C
:105370001A807A4B9A8C7C4B1A80784BDA8C7B4B58
:105380001A80764B5A687A4B1A60FB1D00221A70FD
:1053900010E0FB1D1A78FB1D1B7870499B00CB1891
:1053A00004331968734B9200D150FB1D1A78FB1D12
:1053B00001321A70684B1B78FA1D12789A42E8D3B2
:1053C0006D4B6E4A1A606E4B00221A806D4B0022A4
:1053D0001A706D4B00221A60FB1D00221A700AE041
:1053E000FB1D1A78694B92000021D150FB1D1A78E1
:1053F000FB1D01321A70664B1B78FA1D12789A4217
:10540000EED3644B1A8A644B1A80624B5B699AB282
:10541000624B1A805F4B1A8B614B1A805D4B5A8B23
:10542000604B1A805B4B5A685F4B1A60FB1D002271
:105430001A7010E0FB1D1A78FB1D1B7855499B0064
:10544000CB1804331968594B9200D150FB1D1A78C0
:10545000FB1D01321A704E4B1B78FA1D12789A42CE
:10546000E8D3514B1A68524B1A60524B524A1A6099
:10547000364B00221A80384B1B78013B374A9B0081
:10548000D31804331B68354A928B9B18334AD28C4D
:105490001000314A1278511E484A49008A5A424344
:1054A0009B182D4A1278511E444A49008A5A9A1A6A
:1054B000274B1A60324B00221A80354B1B78013B78
:1054C000344A9B00D31804331B68324A128A9B1853
:1054D000304A528B10002E4A1278511E384A490029
:1054E0008A5A42439B182A4A1278511E344A49006C
:1054F0008A5A9A1A244B1A607B1D20221A707B1D2F
:105500001B787F2B09D82F4B7A1D127811001F2290
:105510000A40012191400A001A60BB1D20221A7026
:10552000BB1D1B787F2B09D8264BBA1D12781100A2
:105530001F220A40012191400A001A60C046BD4660
:1055400002B080BD64200120682001206C20012071
:1055500070200120742001203C2C012020200120FB
:10556000A8200120B8200120BA200120BC20012061
:105570008C20012090200120C0200120000907403C
:10558000C6200120C4200120C8200120CC200120F9
:10559000E82B012048200120E8200120F2200120F2
:1055A000F4200120F6200120D8200120DC20012059
:1055B000FC200120F8200120000A074000210120E2
:1055C0000C21012000E100E080B582B000AF734BF8
:1055D00000221A60724B00221A60724B00221A805D
:1055E000714B00221A60FB1D00221A7010E0FB1D97
:1055F0001A78FB1D1B786D499B00CB180433196882
:105600006B4B9200D150FB1D1A78FB1D01321A70B2
:10561000684B1B78FA1D12789A42E8D3664B9B8C34
:10562000654A928B53439BB201339AB2634B1A8003
:105630005E4B1B6A9AB2624B1A805C4B9A8C614B30
:105640001A805A4BDA8C604B1A80584B5A685F4B61
:105650001A60FB1D00221A7010E0FB1D1A78FB1D5A
:105660001B7852499B00CB1804331968584B9200A1
:10567000D150FB1D1A78FB1D01321A704D4B1B785F
:10568000FA1D12789A42E8D3524B534A1A60534B90
:1056900000221A80524B00221A70524B00221A60CC
:1056A000FB1D00221A7010E0FB1D1A78FB1D1B78F1
:1056B0004D499B00CB18043319684C4B9200D150D4
:1056C000FB1D1A78FB1D01321A70494B1B78FA1D1D
:1056D00012789A42E8D3474B1B8B464A128A5343AF
:1056E0009BB201339AB2444B1A803F4B5B699AB22A
:1056F000424B1A803C4B1A8B414B1A803A4B5A8BC7
:10570000404B1A80384B5A683F4B1A60FB1D0022F1
:105710001A7010E0FB1D1A78FB1D1B7832499B00A4
:10572000CB1804331968394B9200D150FB1D1A78FD
:10573000FB1D01321A702E4B1B78FA1D12789A420B
:10574000E8D3314B1A68324B1A60324B324A1A6036
:105750007B1D20221A707B1D1B787F2B09D82F4BB5
:105760007A1D127811001F220A40012191400A007F
:105770001A60BB1D20221A70BB1D1B787F2B09D815
:10578000264BBA1D127811001F220A4001219140B8
:105790000A001A60C046BD4602B080BD64200120E8
:1057A000682001206C200120702001202020012091
:1057B000742001203C2C0120DC1F0120A8200120A6
:1057C000B8200120BA200120BC2001208C2001201B
:1057D00090200120C020012000090740C6200120A0
:1057E000C4200120C820012048200120CC20012015
:1057F000E82B012004200120E8200120F2200120D4
:10580000F4200120F6200120D8200120DC200120F6
:10581000FC200120F8200120000A074000E100E000
:1058200080B500AF084A137B01210B431373064A6E
:10583000137B02210B431373034A137B7F210B401D
:105840001373C046BD4680BD0008074080B500AF59
:10585000064A137B01218B431373044A137B0221F5
:105860008B431373C046BD4680BDC0460008074049
:1058700080B582B000AF614B1B78013B1A00604BD2
:105880001B689A4200D9A3E05E4B1B8801339AB291
:105890005C4B1A805C4B5D4A1A60594B00221A60BF
:1058A000584B1A885A4B1B889A4265D1554B002297
:1058B0001A80584B1B685A1C564B1A60564B1B8853
:1058C0001A00544B1B689A4221D1524B00221A6095
:1058D000202012F071FEFB1D20221A70FB1D1B7888
:1058E0007F2B0ED84D49FB1D1B781A001F23134038
:1058F00001229A40130080228B50BFF34F8FBFF3D9
:105900006F8F00220021202012F066FF72E03C4BD6
:1059100000221A601EE03A4B1A68394B1968404B56
:105920008900C958364B18683E4B4000C35AC91805
:105930003D4B9200D150324B1A68314B19683A4BAB
:105940008900C958364B9200D1502D4B1B685A1C08
:105950002B4B1A60294B1B781A00294B1B689A4263
:10596000D9D8274B00221A60254B1A682E4B92007B
:10597000D2582E4B1A603DE0214B00221A6015E0F0
:105980001F4B1A68284B9200D358294A12889A183C
:10599000264B1A601A4B1A68244B1968224B920046
:1059A000D150174B1B685A1C154B1A60134B1B78B0
:1059B0001A00134B1B689A42E2D8114B00221A605E
:1059C0000F4B1A68184B9200D258184B1A6011E00E
:1059D0000B4B1B685A1C0A4B1A60094B1A68124B76
:1059E0009200D258114B1A60074B1B6820331A00E3
:1059F000054B1A60C046BD4602B080BD3C2C01205C
:105A0000642001206C200120C020012000090740F3
:105A1000BA20012070200120BC20012000E100E01C
:105A200074200120AC200120902001208C20012036
:105A3000A820012080B582B000AF694B1B78013BE4
:105A40001A00684B1B689A4200D9B2E0664B1B886B
:105A500001339AB2644B1A80644B654A1A60614BF9
:105A600000221A60604B1A88624B1B889A4274D1DC
:105A70005D4B00221A80604B1B685A1C5E4B1A60FB
:105A80005E4B1B881A005C4B1B689A4230D15A4B04
:105A900000221A60FFF7DAFE594B00221A70594BA8
:105AA00000221A70202012F087FDFB1D20221A70A0
:105AB000FB1D1B787F2B0ED85349FB1D1B781A004A
:105AC0001F23134001229A40130080228B50BFF302
:105AD0004F8FBFF36F8F00220021202012F07CFE39
:105AE000FEF734FF494B1B681800FFF775F872E0AA
:105AF0003C4B00221A601EE03A4B1A68394B196879
:105B0000434B8900C958374B1868424B4000C35A71
:105B1000C918414B9200D150324B1A68314B196869
:105B20003D4B8900C9583A4B9200D1502D4B1B6810
:105B30005A1C2C4B1A602A4B1B781A00294B1B68E5
:105B40009A42D9D8274B00221A60264B1A68324B4A
:105B50009200D258314B1A603DE0224B00221A606D
:105B600015E0204B1A682C4B9200D3582C4A12880F
:105B70009A182A4B1A601B4B1A68284B1968264B37
:105B80009200D150174B1B685A1C164B1A60144BCD
:105B90001B781A00134B1B689A42E2D8114B002263
:105BA0001A60104B1A681C4B9200D2581B4B1A609B
:105BB00011E00C4B1B685A1C0A4B1A60094B1A68FF
:105BC000154B9200D258154B1A60084B1B682033B6
:105BD0001A00064B1A60C046BD4602B080BDC046E2
:105BE000E82B012068200120C6200120F820012098
:105BF000000A0740F4200120C8200120F6200120DF
:105C0000202001204820012000E100E04C2101205B
:105C1000CC200120EC200120DC200120D820012014
:105C2000E820012080B586B000AFF860B9607A60E6
:105C30003B6000237B610DE0BB68FA6812781A7044
:105C4000FA687B68D318FB60BB680133BB607B6973
:105C500001337B617A693B689A42EDD3C046BD4609
:105C600006B080BD80B586B000AFF860B9607A60DC
:105C70003B6000237B610DE0BB68FA6812781A7004
:105C8000BA687B68D318BB60FB680133FB607B6933
:105C900001337B617A693B689A42EDD3C046BD46C9
:105CA00006B080BD80B588B000AFF860B9607A609A
:105CB0003B607B6BBB610023FB611FE07B68BA68C4
:105CC00012781A707B6801337B603B6B5A1EBB698C
:105CD0009A4207D9BA683B68D318BB60BB690133E5
:105CE000BB6108E0BA68FB6AD2183B6BD31A013378
:105CF000BB600023BB61FB690133FB61FA69BB6ACE
:105D00009A42DBD31023FB18BA691A601023FB18E0
:105D1000BA685A60FB681022BA1803CA03C3F8684D
:105D2000BD4608B080BD80B588B000AFF860B960EE
:105D30007A603B607B6BBB610023FB611FE07B688B
:105D4000BA6812781A70BB680133BB603B6B5A1E8D
:105D5000BB699A4207D97A683B68D3187B60BB69F4
:105D60000133BB6108E07A68FB6AD2183B6BD31A37
:105D700001337B600023BB61FB690133FB61FA697E
:105D8000BB6A9A42DBD31023FB18BA691A6010234E
:105D9000FB187A685A60FB681022BA1803CA03C35A
:105DA000F868BD4608B080BD80B500AF5C4B1B787D
:105DB000013B1A005B4B1B689A4200D993E05A4B97
:105DC0001B8801339AB2584B1A80584B584A1A60B4
:105DD000544B00221A60544B1A88564B1B889A4227
:105DE0004ED3514B00221A80534B1B685A1C524B06
:105DF0001A60524B1B881A004F4B1B689A4203D102
:105E00004D4B00221A6087E0464B00221A601EE0CC
:105E1000444B1A68434B1968494B8900C958414B98
:105E20001868484B4000C35AC918474B9200D150DC
:105E30003C4B1A683B4B1968434B8900C958404B8F
:105E40009200D150374B1B685A1C364B1A60344BAA
:105E50001B781A00334B1B689A42D9D8314B002269
:105E60001A60304B1A68394B5200D25A384B1A809C
:105E70002C4B1A68344B9200D258364B1A604BE0C8
:105E8000284B00221A6015E0264B1A682E4B920010
:105E9000D358314A12889A182E4B1A60214B1A682F
:105EA0002C4B1968284B9200D1501E4B1B685A1C72
:105EB0001C4B1A601A4B1B781A001A4B1B689A422B
:105EC000E2D8184B00221A60164B1A681F4B52007A
:105ED000D25A1F4B1A80134B1A681B4B9200D25890
:105EE0001C4B1A6018E00F4B1B685A1C0D4B1A60B4
:105EF0000C4B1A68154B5200D25A154B1A80094B9D
:105F00001A68114B9200D258124B1A60074B1B684B
:105F100020331A00054B1A60C046BD4680BDC046FE
:105F20003C2C0120642001206C200120C020012095
:105F300000090740BA20012070200120BC20012068
:105F400074200120AC20012090200120002101209C
:105F5000182101208C200120A820012080B582B0CA
:105F600000AF854B1B78013B1A00844B1B689A429B
:105F700000D9E3E0824B1B8801339AB2804B1A8030
:105F8000804B814A1A607D4B00221A607C4B1A8834
:105F90007E4B1B889A4200D29DE0794B00221A80EA
:105FA0007B4B1B685A1C7A4B1A607A4B1B881A0071
:105FB000774B1B689A4252D1774B1B68DB693A00DA
:105FC0001000984780235B057B600BE0724B1B68D9
:105FD000DB693A0010009847C0467B685A1E7A6019
:105FE000002B07D03B009B7801225340DBB2002BF3
:105FF000ECD100E0C046664B00221A60FFF726FC99
:10600000664B00221A70664B1B689B699847031EFB
:1060100002D0644B1B6898475F4B1B689B6998478D
:10602000031E02D05F4B1B6898475D4B1B689B6843
:106030009847031E02D05B4B1B689847564B1B6862
:106040009B689847031E02D0564B1B689847FEF783
:106050007DFC544B1B681800FEF7BEFD87E0474BE4
:1060600000221A601EE0454B1A68444B19684E4BDB
:106070008900C958414B18684C4B4000C35AC91895
:106080004B4B9200D1503D4B1A683C4B1968484B22
:106090008900C958444B9200D150384B1B685A1C98
:1060A000364B1A60344B1B781A00344B1B689A42EB
:1060B000D9D8324B00221A60304B1A683D4B52003F
:1060C000D25A3D4B1A802D4B1A68394B9200D25848
:1060D0003A4B1A604BE0294B00221A6015E0274B1F
:1060E0001A68334B9200D358354A12889A18334BAA
:1060F0001A60224B1A68314B19682D4B9200D1500F
:106100001E4B1B685A1C1D4B1A601B4B1B781A0038
:106110001A4B1B689A42E2D8184B00221A60174BA0
:106120001A68244B5200D25A234B1A80134B1A6818
:106130001F4B9200D258214B1A6018E00F4B1B687E
:106140005A1C0E4B1A600D4B1A681A4B5200D25A49
:10615000194B1A80094B1A68154B9200D258174BED
:106160001A60084B1B6820331A00064B1A60C046A1
:10617000BD4602B080BDC046E82B0120682001204A
:10618000C6200120F8200120000A0740F420012049
:10619000C8200120F620012048210120DC1F012019
:1061A000442101204C210120CC200120EC200120A1
:1061B000DC2001200C2101201A210120D8200120FF
:1061C000E820012080B584B000AF0200FB1D1A70EA
:1061D000FB1D1B78013BFB60094AFB68DBB2191C05
:1061E00007230B40D9B25368072001400906054830
:1061F00003400B435360C046BD4604B080BDC0465B
:1062000000080740FFFFFFF880B584B000AF78605A
:106210000F23FB1800221A704D4B1B78002B00D067
:106220007EE04C4B1B78012B0BD17B68180000F0F3
:1062300095F80820FFF7C6FFFFF7F2FAFEF77AFBA2
:1062400081E00B23FB1820221A700B23FB181B780C
:106250007F2B0BD840490B23FB181B781A001F23F8
:10626000134001229A40C0235B00CA500C23FB1844
:1062700020221A700C23FB181B787F2B0BD8364971
:106280000C23FB181B781A001F23134001229A408D
:10629000C0235B00CA50202012F08EF9202012F09B
:1062A0008BF90D23FB1820221A700D23FB181B7885
:1062B0007F2B0FD828490D23FB181B781A001F23AA
:1062C000134001229A40130080228B50BFF34F8F5E
:1062D000BFF36F8F0E23FB1820221A700E23FB18BA
:1062E0001B787F2B0FD81C490E23FB181B781A0034
:1062F0001F23134001229A40130080228B50BFF3CA
:106300004F8FBFF36F8F00220021202012F064FA1C
:1063100000220021202012F05FFA7B68984712E0EB
:106320007B68180000F0A2F9094B9A8C0F23FB1828
:106330001A700F23FB181B781800FFF743FFFFF7B5
:106340006FFAFEF7F7FAC046BD4604B080BDC046FE
:1063500020200120DC1F012000E100E0B0B588B062
:1063600006AF78609D4B00221A609D4B00221A6098
:106370009C4B01221A809C4B00221A609B4B5A684E
:106380009B4B1A60994B9A8B9A4B1A80974B9A8C1D
:10639000994B1A80954BDA8C984B1A80934B5A681C
:1063A000974B1A60974B984A1A60984B1A88984BEB
:1063B0001A808E4B5A68974B1A60974B00221A80AE
:1063C000964B00221A70964B00221A60954B5A6821
:1063D000954B1A60934B1A8A944B1A80914B1A8BE7
:1063E000934B1A808F4B5A8B924B1A808D4B5A6865
:1063F000914B1A60904B1A68904B1A60904B914ADF
:106400001A60914B1A88914B1A80864B5A68904BB0
:106410001A60904B1B78012B3CD1824B5B8B012B7C
:1064200038D1804B1B8B012B34D18B4B1B881C002C
:10643000764B1B881D00724B1B688022D100802286
:1064400010027A680592854A04920393029501949A
:106450001023009308230A000021FEF783FA7D4BE6
:106460001B781C00784B1B881D00734B1B68802217
:106470001101802210027A680592794A04920393EE
:10648000029501941023009308230A000021FEF7CF
:1064900039FB90E0704B1B881C005C4B1B881D0077
:1064A000574B1B688022D100802210027A68059227
:1064B0006A4A0492039302950194102300930823DF
:1064C0000A000021FEF74EFA624B1B781C005E4B5F
:1064D0001B881D00584B1B6880221101802210026E
:1064E0007A6805925F4A04920393029501941023FF
:1064F000009308230A000021FEF704FB554B1B788C
:10650000012B1FD1474B1B8B012B1BD1464B1B680B
:10651000554A12889A18484B1A60474B1A68424BE2
:106520001A60454B1A68454B1A603B4B00221A8093
:106530003A4B00221A703A4B01221A60404B414AF2
:106540001A6038E0434B1B78012B20D1374B1B8856
:106550001A003A4B1B68D218374B1A60364B1A6830
:10656000364B1A60314B1B881A00344B1B68D2180B
:10657000374B1A60294B00221A70314B314A1A608E
:10658000254B1B8801339AB2234B1A8013E02E4B04
:106590001B881A00284B1B68D218274B1A60284BFF
:1065A0001B6810331A00264B1A601C4B1B780133F2
:1065B000DAB21A4B1A700F4B1B881A00104B1B686B
:1065C000D2180F4B1A600A4B1B680A4A12889A1895
:1065D000104B1A60C046BD4602B0B0BD6420012019
:1065E000682001206C20012070200120DC1F012088
:1065F00074200120A8200120BA200120BC20012005
:106600008C200120C020012000090740002101202A
:106610001821012090200120C6200120C420012043
:10662000C820012004200120CC200120E8200120E6
:10663000F4200120F6200120D8200120FC20012098
:10664000F8200120000A07400C2101201A21012016
:10665000DC20012012210120162101203D92002082
:10666000F592002069930020EC200120B0B58AB09B
:1066700006AF7860754B00221A60754B00221A60D5
:10668000744B00221A80744B00221A60734B5A68B4
:10669000734B1A60714B9A8B724B1A806F4B9A8CAA
:1066A000714B1A806D4BDA8C704B1A806B4B5A68A9
:1066B0006F4B1A606F4B704A1A60704B1A88704BA0
:1066C0001A80704B5A68704B1A60704B00221A8007
:1066D0006F4B00221A706F4B00221A606E4B5A6883
:1066E0006E4B1A606C4B1A8A6D4B1A806A4B1A8B70
:1066F0006C4B1A80684B5A8B6B4B1A80664B5A68EE
:106700006A4B1A60694B1A68694B1A60694B6A4A8E
:106710001A606A4B1A001E21202012F05DF84F4BC0
:106720009B8C012B33D14D4BDB8C012B2FD1644B38
:106730001B881C00514B1B881D00484B5B68802246
:10674000D100802210027A6804920393029501948A
:106750001023009308230A000021FEF76DF90F2390
:10676000FB1820221A700F23FB181B787F2B0AD8E6
:10677000544B0F22BA18127811001F220A4001212F
:1067800091400A001A60344B00221A605AE04C4BC8
:106790001B881C00394B1B881D00304B5B68802216
:1067A000D100802210027A680592474A049203932E
:1067B000029501941023009308230A000021FEF79C
:1067C000D1F80E23FB1820221A700E23FB181B7819
:1067D0007F2B0AD83B4B0E22BA18127811001F22C9
:1067E0000A40012191400A001A601C4B9B8C012B2E
:1067F00013D11B4B1B68354A12889A181C4B1A6020
:106800001B4B1A68164B1A60124B00221A80124B4F
:106810001B685A1C104B1A6014E0124B1B881A009C
:10682000134B1B68D218124B1A600D4B1B680D4A94
:1068300012889A18144B1A60064B1B8801339AB2BF
:10684000044B1A80C046BD4604B0B0BD6420012090
:10685000682001206C2001207020012020200120D0
:1068600074200120A8200120BA200120BC20012092
:106870008C200120C02001200009074000210120B8
:1068800018210120DC1F012090200120C6200120BA
:10689000C4200120C820012048200120CC20012054
:1068A000E8200120F4200120F6200120D82001203A
:1068B000FC200120F8200120000A0740B5930020A9
:1068C0001621012000E100E03D920020AC200120D3
:1068D00080B582B000AF5B4B1B780133DAB2594B05
:1068E0001A70584B1A78584B1B789A4200D297E08E
:1068F000544B00221A70554B1B8801339AB2534BEC
:106900001A80534B534A1A60504B1A88524B1B88BB
:106910009A4200D277E04D4B00221A804A4B1B78F6
:106920001A004E4B1B68D2184C4B1A604C4B1B88FC
:106930001A004A4B1B689A4255D14A4B1B68DB69C7
:106940003A001000984780235B057B600BE0454BC5
:106950001B68DB693A0010009847C0467B685A1EE6
:106960007A60002B07D03B009B7801225340DBB2BA
:10697000002BECD100E0C046384B00221A603A4BA5
:1069800000221A70394B00221A70394B1B689B6920
:106990009847031E02D0374B1B689847314B1B6842
:1069A0009B699847031E02D0324B1B689847304BB7
:1069B0001B689B689847031E02D02E4B1B689847A4
:1069C000284B1B689B689847031E02D0294B1B6805
:1069D0009847FEF73BFFFDF7B9FF264B1B681800F1
:1069E000FFF712FC2AE0244B1B68244A12889A18ED
:1069F000234B1A60224B1A681F4B1A60204B1A68EF
:106A0000204B1A601AE0204B1B881A001D4B1B6894
:106A1000D2181B4B1A601A4B1A681A4B1A600DE0F9
:106A20001A4B1B881A00164B1B68D218144B1A609D
:106A3000074B1B6810331A00054B1A60C046BD4651
:106A400002B080BDC420012012210120C6200120F7
:106A5000F8200120000A0740F4200120C82001206E
:106A6000F620012048210120DC1F0120182C0120E4
:106A7000442101204C210120CC200120EC200120C8
:106A8000D8200120FC200120E82001200C21012039
:106A900080B586B000AFF860B9607A603B600023D3
:106AA0007B6114E07A697B689A4207D2BB68FA6816
:106AB00012781A70BB680133BB6002E0FB681B7878
:106AC0003B61FB680133FB607B6901337B617A6961
:106AD0003B689A42E6D3C046BD4606B080BDFFFF84
:106AE00080B582B000AF5C4B1B780133DAB25A4BF1
:106AF0001A70594B1A78594B1B789A4200D299E078
:106B0000554B00221A70564B1B8801339AB2544BD6
:106B10001A80544B544A1A60514B1A88534B1B88A5
:106B20009A4200D279E04E4B00221A804B4B1B78E0
:106B30001A004F4B1B68D2184D4B1A604D4B1B88E7
:106B40001A004B4B1B689A4257D1494B00221A60DE
:106B5000494B00221A70494B00221A70484B002200
:106B60001A70BB1D20221A70BB1D1B787F2B0ED8FC
:106B70004449BB1D1B781A001F23134001229A4071
:106B8000130080228B50BFF34F8FBFF36F8F2020F5
:106B900011F012FDFB1D20221A70FB1D1B787F2BAC
:106BA0000AD83849FB1D1B781A001F231340012205
:106BB0009A40C0235B00CA5000220021202011F01F
:106BC0000BFE314B1B689B699847031E02D02F4B6D
:106BD0001B6898472C4B1B689B689847031E02D084
:106BE0002A4B1B689847FEF731FEFDF7AFFE274B97
:106BF0001B681800FFF708FB2AE0254B1B68254A95
:106C000012889A18244B1A60234B1A68204B1A607A
:106C1000214B1A68214B1A601AE0214B1B881A007D
:106C20001E4B1B68D2181C4B1A601B4B1A681B4B5F
:106C30001A600DE01B4B1B881A00174B1B68D218FB
:106C4000154B1A60074B1B6810331A00054B1A606E
:106C5000C046BD4602B080BDC420012012210120E3
:106C6000C6200120F8200120000A0740F42001205E
:106C7000C8200120F62001202020012048200120EA
:106C8000C42B012000E100E0442101204C2101201F
:106C9000CC200120EC200120D8200120FC20012064
:106CA000E82001200C21012080B584B000AF78607D
:106CB000414B1B78012B0CD1404B1B881A007B6881
:106CC0001900100000F07EF8FEF7AAFDFDF732FE75
:106CD0006DE00C23FB1820221A700C23FB181B7884
:106CE0007F2B0BD836490C23FB181B781A001F2367
:106CF000134001229A40C0235B00CA500D23FB18A9
:106D000020221A700D23FB181B787F2B0BD82C49DF
:106D10000D23FB181B781A001F23134001229A40F1
:106D2000C0235B00CA50202011F046FC202011F047
:106D300043FC0E23FB1820221A700E23FB181B782D
:106D40007F2B0FD81E490E23FB181B781A001F2318
:106D5000134001229A40130080228B50BFF34F8FC3
:106D6000BFF36F8F0F23FB1820221A700F23FB181D
:106D70001B787F2B0FD812490F23FB181B781A00A2
:106D80001F23134001229A40130080228B50BFF32F
:106D90004F8FBFF36F8F00220021202011F01CFDC8
:106DA00000220021202011F017FD7B689847C04683
:106DB000BD4604B080BDC046DC1F01201621012065
:106DC00000E100E0B0B58EB002AF786039605C4B96
:106DD00001221A805B4B00221A605B4B5A685B4BA6
:106DE0001A60594B9A8B5A4B1A80574B9A8C594BB5
:106DF0001A80554BDA8C584B1A80534B5A68574BB4
:106E00001A60574B574A1A60574B1A88574B1A80CB
:106E1000574B00221A80574B00221A70564B002203
:106E20001A60564B1A8A564B1A80544B1A8B554B84
:106E30001A80524B5A8B544B1A80544B544A1A6046
:106E40004B4B1B887B624C4B1B683B624B4B1B8B39
:106E5000FB614A4B5B8BBB614E4B1B78012B22D8ED
:106E6000FA69BB699A4208D9FB699AB2434B1A8303
:106E7000FB699AB2414B5A831DE0FA69BB699A4299
:106E800008D2BB699AB23D4B1A83BB699AB23B4B9D
:106E90005A8310E0FB699AB2384B1A83BB699AB2E5
:106EA000364B5A8307E0FB699AB2344B1A83BB69AD
:106EB0009AB2324B5A83374B1978304B1B8B1C00DC
:106EC0002E4B5B8B1D000C23F8183B6A7A6A0195E8
:106ED000009400F0C3F90C23FB181B68FB620C2321
:106EE000FB185B68BB622C4B1B88082B03D1BB6A69
:106EF000DB00BB6205E0FB6A5B00FB62BB6A1B0157
:106F0000BB62264B1B881A00BB6A5A43FB6AD31824
:106F10007B611A4B5A687B69D218214B1A603A6818
:106F20007B681100180000F03DF83A687B6811009A
:106F3000180000F0E5F8C046BD460CB0B0BDC04634
:106F40006C20012070200120DC1F01207420012012
:106F5000A8200120BA200120BC2001208C20012083
:106F6000C020012000090740002101201821012034
:106F7000C6200120C4200120C820012004200120B7
:106F8000E8200120F4200120F6200120F820012033
:106F9000000A074012210120162101200C210120A6
:106FA000D8200120B0B58AB006AF78603960454B73
:106FB0001B88082B02D0102B05D00AE00E23FB18EB
:106FC00000221A800BE00E23FB18802252011A8047
:106FD00005E00E23FB18802252011A80C0463A4B6E
:106FE0001B88012B1CD1394B1B88012B18D10E2378
:106FF000FB181988364B1B881D00364B1B688022F6
:10700000D400802210023A680492039302957B68B0
:1070100001931023009308232200FDF70DFD4DE09E
:107020000E23FB1819882A4B1B881D00294B1B684F
:107030008022D400802210023A680592264A0492E7
:10704000039302957B680193102300930823220089
:10705000FDF788FC1C4B1B88012B18D11F4B1B68AC
:107060005A1C1E4B1A601E4B1B681E4A12889A1827
:10707000184B1A60174B1A68194B1A601A4B1B4AA7
:107080001A601B4B1B685A1C194B1A6016E0144BF4
:107090001B68184A12889A180E4B1A60124B134A32
:1070A0001A600F4B1B68134A12889A18124B1A6009
:1070B000124B1B8801339AB2104B1A80C046BD4652
:1070C00004B0B0BD16210120BA200120BC2001204F
:1070D000002101208C2001203D9200207020012001
:1070E00074200120AC200120C020012000090740AD
:1070F000C8200120A820012090200120C6200120C6
:10710000B0B590B006AF78603960494B1B88082B4A
:1071100002D0102B05D00AE02623FB1800221A808B
:107120000BE02623FB18802252011A8005E026235B
:10713000FB18802252011A80C0463E4B1B88012B4F
:107140001ED13D4B1B88012B1AD12623FB18198811
:107150003A4B1B881D003A4B1B6880221401802289
:1071600010023A680592374A0492039302957B68AD
:1071700001930023009304232200FDF7C3FC53E096
:107180002623FB1819882D4B1B881D002C4B1B68D0
:1071900080221401802210023A6805922A4A049241
:1071A000039302957B68019300230093042322003C
:1071B000FDF7A8FC254B1B88BB61254B1B687B6139
:1071C000244B1978244B1B8B1C00234B5B8B1D001D
:1071D0000823F8187B69BA690195009400F03EF81D
:1071E0000823FB181B683B620823FB185B68FB61E4
:1071F0000F4B1B88082B03D1FB69DB00FB6105E00B
:107200003B6A5B003B62FB691B01FB610B4B1B880C
:107210001A00FB695A433B6AD3183B610E4B5A680C
:107220003B69D218064B1A60C046BD460AB0B0BDD5
:1072300016210120F4200120F62001200C2101203C
:10724000D8200120F5920020E9930020C6200120DB
:10725000C8200120122101200420012080B588B01F
:1072600000AFF8607A603B600B23FB180A1C1A70B1
:107270000B23FB181B78002B07D1BA6A3B68D31A83
:10728000013BFB617B68BB6127E00B23FB181B788C
:10729000012B07D13B68FB61BA6A7B68D31A013BBB
:1072A000BB611AE00B23FB181B78022B07D17B680C
:1072B000FB61FA6A3B68D31A013BBB610DE00B230B
:1072C000FB181B78032B07D1BA6A7B68D31A013BE2
:1072D000FB613B68BB6100E0C0461023FB18FA6904
:1072E0001A601023FB18BA695A60FB681022BA189A
:1072F00003CA03C3F868BD4608B080BDB0B58CB002
:1073000002AF574B1B8801339AB2554B1A80554B2D
:10731000554A1A60524B1A88544B1B889A4260D3C4
:107320004F4B00221A80524B1B685A1C504B1A605C
:10733000504B1B881A004E4B1B689A4251D14E4B42
:107340001B68DB693A1D1000984780235B05FB61D1
:107350000BE0494B1B68DB693A1D10009847C0469B
:10736000FB695A1EFA61002B07D03B1D9B78012256
:107370005340DBB2002BECD100E0C0463C4B002276
:107380001A60FEF763FA3D4B00221A703C4B1B68F3
:107390009B699847031E02D03A4B1B689847364BAF
:1073A0001B689B699847031E02D0364B1B689847A1
:1073B000334B1B689B689847031E02D0314B1B68F8
:1073C00098472D4B1B689B689847031E02D02D4B96
:1073D0001B689847FDF7BAFA2A4B1B681800FFF79D
:1073E00063FC1F4B1B88BB61214B1B687B61264BD9
:1073F0001978264B1B8B1C00244B5B8B1D0008232C
:10740000F8187B69BA6901950094FFF727FF0823F4
:10741000FB181B687B620823FB185B683B621C4BF4
:107420001B88082B03D13B6ADB003B6205E07B6ACB
:107430005B007B623B6A1B013B62164B1B881A0098
:107440003B6A5A437B6AD3183B61104B5A683B69CD
:10745000D218114B1A60C046BD460AB0B0BDC04636
:10746000C6200120F8200120000A0740F420012056
:10747000C8200120F620012048210120DC1F012026
:10748000442101204C21012012210120042001204F
:10749000162101200C210120D820012080B584B0C4
:1074A00000AF7860414B1B78012B0CD1404B1B88FF
:1074B0001A007B681900100000F07EF8FEF7B0F9A2
:1074C000FDF738FA6DE00C23FB1820221A700C230C
:1074D000FB181B787F2B0BD836490C23FB181B7825
:1074E0001A001F23134001229A40C0235B00CA5098
:1074F0000D23FB1820221A700D23FB181B787F2BFD
:107500000BD82C490D23FB181B781A001F2313409E
:1075100001229A40C0235B00CA50202011F04CF891
:10752000202011F049F80E23FB1820221A700E2398
:10753000FB181B787F2B0FD81E490E23FB181B78D6
:107540001A001F23134001229A40130080228B50FF
:10755000BFF34F8FBFF36F8F0F23FB1820221A70DA
:107560000F23FB181B787F2B0FD812490F23FB1812
:107570001B781A001F23134001229A401300802217
:107580008B50BFF34F8FBFF36F8F0022002120205D
:1075900011F022F900220021202011F01DF97B6852
:1075A0009847C046BD4604B080BDC046DC1F0120E0
:1075B0001621012000E100E090B589B006AF7860A7
:1075C00039606B4B01221A806A4B00221A606A4BA9
:1075D00000221A70694B9A8B694B1A80674B9A8C00
:1075E000684B1A80654BDA8C674B1A80634B5A687C
:1075F000664B1A60664B674A1A60604B5A68664B66
:107600001A605E4B5A68654B1A60654B01221A80FE
:10761000644B00221A60644B1A8A644B1A80624BD6
:107620001A8B634B1A80604B5A8B624B1A805E4BED
:107630005A68614B1A60614B614A1A605A4B5A682A
:10764000604B1A60584B5A685F4B1A605F4B1B883F
:107650001C004E4B1B688022D100802210023A6829
:1076600005925B4A0492039302947B680193102372
:10767000009308230A000021FDF774F9474B1B68AB
:107680003F4A12889A18414B1A60414B414A1A608E
:10769000424B1B683A4A12889A183F4B1A60364B85
:1076A00001221A70424B1B88012B1CD1414B1B88B5
:1076B000012B18D1474B1B881C003F4B1B688022B5
:1076C0001101802210023A680592434A0492039302
:1076D00002947B6801930023009304230A00002195
:1076E000FDF710FA40E03B4B1B881C00324B1B6837
:1076F00080221101802210023A680592374A0492D2
:10770000039302947B6801930023009304230A00EF
:107710000021FDF7F7F9264B1B88012B13D1214BD4
:107720001B685A1C1F4B1A60274B1B682C4A128877
:107730009A18214B1A60204B1A68234B1A601F4B72
:107740001F4A1A6010E0204B1B68184A12889A18CA
:10775000194B1A60194B1A4A1A601B4B1B68134AC3
:1077600012889A18174B1A60C046BD4603B090BDE8
:107770006C2001207020012012210120DC1F01203B
:10778000A8200120BA200120BC2001208C2001204B
:10779000C020012000090740902001207420012012
:1077A000C6200120C820012004200120E82001205B
:1077B000F4200120F6200120D8200120F82001200B
:1077C000000A0740DC200120CC20012000210120FC
:1077D000359400200C210120F59200208194002096
:1077E000EC20012080B500AF294B2A4A1A602A4BB1
:1077F0001A882A4B1B889A4229D3294B1B78012BC4
:1078000025D1254B01221A80264B1B685A1C254B7B
:107810001A60254B1B881A00224B1B689A4203D121
:10782000204B00221A602FE0204B1B68204A128850
:107830009A18204B1A601F4B1A681C4B1A601D4B7C
:107840001A681D4B1A60164B00221A701CE0144B6C
:107850001B78002B0ED1174B1B68184A12889A18F8
:10786000154B1A60144B1A68124B1A600C4B01220C
:107870001A7009E00A4B00221A70074B1B8801336B
:107880009AB2054B1A80FFE7C046BD4680BDC04690
:10789000C0200120000907406C200120BA200120EF
:1078A0001221012070200120BC2001207420012021
:1078B000AC200120902001208C200120A820012054
:1078C00080B582B000AF484B1B8801339AB2464B5B
:1078D0001A80464B464A1A60434B1A88454B1B8810
:1078E0009A4200D271E0404B00221A80424B1B6842
:1078F0005A1C414B1A60414B1B881A003E4B1B68B7
:107900009A4252D13E4B1B68DB693A0010009847FF
:1079100080235B057B600BE0394B1B68DB693A0019
:1079200010009847C0467B685A1E7A60002B07D02B
:107930003B009B7801225340DBB2002BECD100E0EE
:10794000C0462D4B00221A60FDF780FF2D4B002210
:107950001A702D4B1B689B699847031E02D02B4B56
:107960001B689847264B1B689B699847031E02D0EB
:10797000264B1B689847244B1B689B689847031E3F
:1079800002D0224B1B6898471D4B1B689B68984789
:10799000031E02D01D4B1B689847FCF7D7FF1B4BFB
:1079A0001B681800FFF77AFD1AE0194B1B68194A8B
:1079B00012889A18184B1A60174B1A68144B1A60E1
:1079C000154B1A68154B1A600AE0134B1B68144AD2
:1079D00012889A18114B1A60104B1A680E4B1A60D5
:1079E000C046BD4602B080BDC6200120F82001205F
:1079F000000A0740F4200120C8200120F6200120C1
:107A000048210120DC1F0120442101204C210120BC
:107A1000CC200120EC200120DC200120D8200120F6
:107A2000E820012080B584B000AF78600C23FB18FB
:107A300020221A700C23FB181B787F2B0BD834499B
:107A40000C23FB181B781A001F23134001229A40B5
:107A5000C0235B00CA500D23FB1820221A700D238F
:107A6000FB181B787F2B0BD829490D23FB181B789B
:107A70001A001F23134001229A40C0235B00CA5002
:107A8000202010F099FD202010F096FD0E23FB1809
:107A900020221A700E23FB181B787F2B0FD81C494D
:107AA0000E23FB181B781A001F23134001229A4053
:107AB000130080228B50BFF34F8FBFF36F8F0F23C4
:107AC000FB1820221A700F23FB181B787F2B0FD86E
:107AD0000F490F23FB181B781A001F2313400122A4
:107AE0009A40130080228B50BFF34F8FBFF36F8FEC
:107AF00000220021202010F06FFE00220021202013
:107B000010F06AFE7B689847C046BD4604B080BD51
:107B100000E100E080B582B000AF374B1B78013345
:107B2000DAB2354B1A70344B1B789AB2334B1B8840
:107B30009A4251D3304B00221A70314B314A1A60AD
:107B4000BB1D20221A70BB1D1B787F2B0ED82E491F
:107B5000BB1D1B781A001F23134001229A401300FB
:107B600080228B50BFF34F8FBFF36F8F202010F018
:107B700023FDFB1D20221A70FB1D1B787F2B0AD8CA
:107B80002149FB1D1B781A001F23134001229A4034
:107B9000C0235B00CA5000220021202010F01CFEF0
:107BA0001A4B1B689B699847031E02D0184B1B6831
:107BB0009847164B1B689B689847031E02D0144BCE
:107BC0001B689847FDF742FEFCF7C0FE104B1B6890
:107BD0001800FFF727FF0AE00E4B1B881A000E4B18
:107BE0001B68D2180C4B1A60054B064A1A60C04637
:107BF000BD4602B080BDC046C4200120F220012055
:107C0000F8200120000A074000E100E044210120A3
:107C10004C2101200C210120D820012080B584B006
:107C200000AFF8607A603B600B23FB180A1C1A70E7
:107C3000FB6803221340022B06D8C046C046FB68EF
:107C40000422134004D001E00323E6E0042B06D114
:107C5000C046C046FB680822134004D001E003235D
:107C6000DBE0082B07D1C046C0460B23FB181B786E
:107C7000012B04D801E00323CFE00323CDE03B68D0
:107C8000DB681B79012B01D10123C6E03B681B7D1A
:107C9000180010F0F1FC031E01D00523BDE03B6885
:107CA0005B7D180010F008FD031E06D03B681B7DAD
:107CB000180010F089FD0123AFE03B685B6898472E
:107CC0003B68DB6801221A713B68DB6800225A714D
:107CD0003B68DB6800229A713B68DB680022DA713E
:107CE0003B68DB6800221A723B68DB6800225A722C
:107CF000FB6803221340012B08D002D3022B0BD0C8
:107D000010E03B681B6800221A800DE03B681B688E
:107D1000802292011A8007E03B681B688022D20112
:107D20001A8001E0C046C046FB680422134002D01E
:107D3000042B07D00DE03B681A68D38906210B435A
:107D4000D38108E03B681A68D38906218B43D3812D
:107D500001E0C046C046FB680822134002D0082B51
:107D600007D00DE03B681A68D3895B045B0CD381B4
:107D700008E03B681A68D3892A490B43D38101E0A4
:107D8000C046C0463B681B680B22BA18E021127837
:107D90005A543B681B680B22BA18E12112785A54D6
:107DA0003B681B680B22BA18E22112785A543B68D0
:107DB0001B680B22BA18E32112785A543B681B68DF
:107DC0000B22BA18E42112785A543B681B680B2224
:107DD000BA18E52112785A543B681B680B22BA186E
:107DE000E62112785A543B681B680B22BA18E72127
:107DF00012785A543B681B680B22BA18DD2112789E
:107E00005A543B681B680B22BA18DE2112785A5468
:107E10003B68DB687A681A6000231800BD4604B02E
:107E200080BDC0460080FFFF90B585B000AF040064
:107E3000381D0160426019000F23FB18221C1A70C4
:107E40000E23FB180A1C1A703B1D1B68A84A13401E
:107E500006D13B1D1B791A0001239A43131E01D042
:107E60000323C2E10F23FB181B78012B1CD0022B2C
:107E700032D0002B48D10E23FB181B78002B03D0E7
:107E80000EDB032B0CDC09E03B6A1B681B885B04E0
:107E90009B0FDBB2012B05D10423A6E1C04602E013
:107EA0000323A2E1C04631E03B6A1B681B885B04E8
:107EB0009B0FDBB2012B01D0042396E10E23FB18AC
:107EC0001B78012B06DB022B01DD042B02D1C046FF
:107ED000C0461BE0032388E13B6A1B681B885B04E8
:107EE0009B0FDBB2012B01D004237EE10E23FB1894
:107EF0001B78012B06DB022B01DD042B02D1C046CF
:107F0000C04603E0032370E103236EE13B6ADB68B4
:107F10001B791A000123134001D1012365E13B6A5B
:107F2000DA683B6ADB681B7902210B43DBB2137111
:107F30000F23FB181B78012B00D18AE0022B00D104
:107F4000E2E0002B00D04DE13B6A1A683B1D1B6844
:107F50009BB2FF210B409BB293803B6A1A683B1D8A
:107F60001B681B0C9BB263490B409BB2D3803B6ADE
:107F70001A683B1D1B79190001230B40591E8B41C8
:107F8000D9B2538A081C0121014008025A490B400A
:107F9000191C031C0B4353820E23FB181B78012B67
:107FA0000FD002DC002B05D050E0022B21D0032B98
:107FB00037D04BE03B6A1A68138850490B40138056
:107FC00046E03B6A1A68138A4D490B40191CE823A6
:107FD0005B010B4313823B6A1A68138846490B40C6
:107FE00013803B6A1A681388802189000B43138031
:107FF0002EE03B6A1A68138A41490B40191CC023C2
:108000009B010B4313823B6A1A6813883A490B4061
:1080100013803B6A1A681388802189000B43138000
:1080200016E03B6A1A68138A35490B4013823B6A93
:108030001A681388802149000B4313803B6A1A6831
:108040001388802189000B43138001E0C046C0469D
:10805000CAE03B6A1A683B1D1B689BB2FF210B40BC
:108060009BB293823B6A1A683B1D1B681B0C9BB238
:1080700020490B409BB2D3823B6A1A683B1D1B7997
:10808000190001230B40591E8B41D9B2538A081C99
:108090000121014088021B490B40191C031C0B43A2
:1080A00053820E23FB181B78022B0DD0042B15D006
:1080B000012B1AD13B6A1A68138A3F218B43191C82
:1080C0001D230B43138212E03B6A1A68138A3F2177
:1080D0008B43191C30230B43138208E03B6A1A6858
:1080E000138A3F210B43138201E0C046C0467BE068
:1080F00000FFCC7F3380FFFFFFFEFFFFFFFDFFFF90
:10810000FFC0FFFFFFFBFFFF3B6A1A683B1D1B68B8
:108110009BB2FF210B4099B2D423D1523B6A1A681B
:108120003B1D1B681B0C9BB232490B4099B2D623F6
:10813000D1523B6A1A683B1D1B79190001230B4081
:10814000591E8B41D8B2D821535C01240440012030
:108150008343181C231C034353540E23FB181B7822
:10816000022B0ED0042B17D0012B1DD13B6A1A68AD
:10817000D921535C3F208343181C1D2303435354D0
:1081800014E03B6A1A68D921535C3F208343181CD2
:1081900030230343535409E03B6A1A68D921535CE6
:1081A0003F200343535401E0C046C0463B1D1B68BB
:1081B000114A134005D13B1D1B791A0001231340BE
:1081C00008D03B6A1A68D921535C8020404203439F
:1081D000535409E03B6A1A68D921535C7F2003405D
:1081E000535401E0C046C04600231800BD4605B008
:1081F00090BDC0463380FFFFFF00338080B582B062
:1082000000AF78607B68DB681B791A00022313409B
:1082100001D1012306E07B681A68138803490B43E8
:10822000138000231800BD4602B080BD0080FFFF10
:1082300080B582B000AF78607B68DB681B791A007C
:108240000223134001D1012306E07B681A681388DA
:108250005B045B0C138000231800BD4602B080BD98
:1082600090B587B000AFB9607A600F23FB18021C8D
:108270001A701723FB1800221A707B68DB681B79C1
:108280001A000123134001D10123A5E10F23FB189C
:108290001B780F2B00D1F1E024DC072B00D195E0F7
:1082A00010DC032B00D165E006DC012B4CD000DD97
:1082B00055E0002B3DD087E1052B00D170E000DDBB
:1082C00079E062E00B2B00D1ACE005DC092B00D19A
:1082D00092E000DD9BE084E00D2B00D1B8E000DDF2
:1082E000C1E0AAE0172B00D15AE10FDC132B00D11B
:1082F000F0E005DC112B00D1D6E000DDDFE0C8E0C6
:10830000152B00D1FCE000DD05E1EEE01B2B00D1D8
:108310002BE105DC192B00D113E100DD1CE105E1A7
:108320001D2B00D133E100DA28E11E2B00D142E100
:108330004AE11723FC187A68BB681100180000F0A6
:108340007FFD0300237044E11723FC187A68BB68A3
:108350001100180000F0F4FD0300237039E1172329
:10836000FC187A68BB681100180000F07BFE03005F
:1083700023702EE11723FC187A68BB6811001800DF
:1083800002F00CFA0300237023E11723FC187A682B
:10839000BB681100180002F057FC0300237018E1BD
:1083A0001723FC187A68BB681100180002F0A0FEC1
:1083B000030023700DE11723FC187A68BB681100D5
:1083C000180003F0EDF80300237002E11723FC18F6
:1083D0007A68BB681100180003F022FB03002370C9
:1083E000F7E01723FC187A68BB681100180000F04A
:1083F00013FF03002370ECE01723FC187A68BB68B6
:108400001900002000F032FF03002370E1E0172381
:10841000FC187A68BB681900012000F027FF0300F0
:108420002370D6E01723FC187A68BB681900022075
:1084300000F01CFF03002370CBE01723FC187A68C0
:10844000BB681900032000F011FF03002370C0E097
:108450001723FC187A68BB681900042000F006FF97
:1084600003002370B5E01723FC187A68BB68190075
:10847000052000F0FBFE03002370AAE01723FC1880
:108480007A68BB681900062000F0F0FE0300237034
:108490009FE01723FC187A68BB681900072000F0DA
:1084A000E5FE0300237094E01723FC187A68BB688C
:1084B0001900082000F0DAFE0300237089E017237A
:1084C000FC187A68BB681900092000F0CFFE030091
:1084D00023707EE01723FC187A68BB68110018002F
:1084E00000F043FF0300237073E01723FC187A6841
:1084F000BB681100180000F093FF0300237068E0D0
:108500001723FC187A68BB681100180001F00CF8FA
:10851000030023705DE01723FC187A68BB68110024
:10852000180001F03BFB0300237052E01723FC18F6
:108530007A68BB681100180001F0DAFD03002370AF
:1085400047E01723FC187A68BB681100180001F097
:1085500017FE030023703CE01723FC187B6818000B
:1085600001F0AAFF0300237033E01723FC187B6897
:10857000180001F0BBFF030023702AE01723FC184A
:108580007B68180001F0F8FF0300237021E0172337
:10859000FC187B68180002F017F80300237018E03D
:1085A0001723FC187A68BB681100180003F078FCE8
:1085B000030023700DE01723FC187B68180003F0FC
:1085C00091FC0300237004E01723FB1803221A70A8
:1085D000C0461723FB181B781800BD4607B090BD96
:1085E00080B586B000AFB9607A600F23FB18021C1B
:1085F0001A70BB68002B01D103234EE00F23FB1838
:108600001B78152B09DC142B0EDA002B14DB072B3F
:108610000ADD103B012B0FD806E01F2B0CDB202BB3
:1086200002DD323B012B07D8C046C0460F23FB18A2
:108630001B78202B0CD001E003232EE0202B02DC42
:108640001F2B0AD018E0322B0CD0332B0FD013E0A5
:108650007B681B681A337B611AE07B681B685E339A
:108660007B6115E07B681B6818337B6110E07B68D9
:108670001B681E337B610BE07B681B6820337B61CA
:108680000F23FB181B785B007A69D3187B61C04607
:108690007B691A88BB681A8000231800BD4606B0A3
:1086A00080BDFFFF80B58AB000AF78602723FB183C
:1086B00000221A707B68DB681B791A0001231340C3
:1086C00001D10023AAE37B6816229A560C23FB18DB
:1086D0001A700C23FB181B785BB21F2B1ADC0B23C0
:1086E000FB180C22BA1812781A700B23FB181B788F
:1086F0007F2B0FD8E2490B23FB181B781A001F238E
:10870000134001229A40130080228B50BFF34F8FF9
:10871000BFF36F8F7B6817229A560E23FB181A70CF
:108720000E23FB181B785BB21F2B1ADC0D23FB18E2
:108730000E22BA1812781A700D23FB181B787F2BA3
:108740000FD8CF490D23FB181B781A001F231340A5
:1087500001229A40130080228B50BFF34F8FBFF34A
:108760006F8F7B6818229A561023FB181A701023FB
:10877000FB181B785BB21F2B1ADC0F23FB1810228F
:10878000BA1812781A700F23FB181B787F2B0FD89A
:10879000BB490F23FB181B781A001F23134001222B
:1087A0009A40130080228B50BFF34F8FBFF36F8F1F
:1087B0007B6819229A561223FB181A701223FB1891
:1087C0001B785BB21F2B1ADC1123FB181222BA187C
:1087D00012781A701123FB181B787F2B0FD8A84929
:1087E0001123FB181B781A001F23134001229A4003
:1087F000130080228B50BFF34F8FBFF36F8F7B68C6
:108800001A229A561423FB181A701423FB181B788B
:108810005BB21F2B1ADC1323FB181422BA18127830
:108820001A701323FB181B787F2B0FD8944913233E
:10883000FB181B781A001F23134001229A401300D3
:1088400080228B50BFF34F8FBFF36F8F7B681B224B
:108850009A561623FB181A701623FB181B785BB266
:108860001F2B1ADC1523FB181622BA1812781A705F
:108870001523FB181B787F2B0FD881491523FB1874
:108880001B781A001F23134001229A4013008022F4
:108890008B50BFF34F8FBFF36F8F7B681C229A56AC
:1088A0001823FB181A701823FB181B785BB21F2BB8
:1088B0001ADC1723FB181822BA1812781A7017231B
:1088C000FB181B787F2B0FD86D491723FB181B78DB
:1088D0001A001F23134001229A40130080228B505C
:1088E000BFF34F8FBFF36F8F7B6816229A561A2300
:1088F000FB181A701A23FB181B785BB21F2B1DDCA8
:108900001A23FB181B785BB218000FF055FE1923D1
:10891000FB181A22BA1812781A701923FB181B7840
:108920007F2B0BD856491923FB181B781A001F23DD
:10893000134001229A40C0235B00CA507B68172273
:108940009A561C23FB181A701C23FB181B785BB269
:108950001F2B1DDC1C23FB181B785BB218000FF0CB
:108960002BFE1B23FB181C22BA1812781A701B232B
:10897000FB181B787F2B0BD841491B23FB181B7856
:108980001A001F23134001229A40C0235B00CA50E3
